{
  "_format": "hh-sol-artifact-1",
  "contractName": "PerpDepository",
  "sourceName": "contracts/integrations/perp/PerpDepository.sol",
  "abi": [
    {
      "inputs": [
        {
          "internalType": "address",
          "name": "addr",
          "type": "address"
        }
      ],
      "name": "AddressNotContract",
      "type": "error"
    },
    {
      "inputs": [],
      "name": "ErrZeroAddress",
      "type": "error"
    },
    {
      "inputs": [
        {
          "internalType": "int256",
          "name": "allowance",
          "type": "int256"
        },
        {
          "internalType": "uint256",
          "name": "amount",
          "type": "uint256"
        }
      ],
      "name": "InsufficientPnl",
      "type": "error"
    },
    {
      "inputs": [
        {
          "internalType": "int256",
          "name": "balance",
          "type": "int256"
        }
      ],
      "name": "InvalidQuoteTokenBalance",
      "type": "error"
    },
    {
      "inputs": [
        {
          "internalType": "int8",
          "name": "polarity",
          "type": "int8"
        }
      ],
      "name": "InvalidRebalance",
      "type": "error"
    },
    {
      "inputs": [
        {
          "internalType": "uint256",
          "name": "allowance",
          "type": "uint256"
        },
        {
          "internalType": "uint256",
          "name": "amount",
          "type": "uint256"
        }
      ],
      "name": "NotApproved",
      "type": "error"
    },
    {
      "inputs": [
        {
          "internalType": "address",
          "name": "caller",
          "type": "address"
        }
      ],
      "name": "NotController",
      "type": "error"
    },
    {
      "inputs": [
        {
          "internalType": "uint256",
          "name": "requestedAmount",
          "type": "uint256"
        },
        {
          "internalType": "int256",
          "name": "unrealizedPnL",
          "type": "int256"
        },
        {
          "internalType": "int8",
          "name": "polarity",
          "type": "int8"
        }
      ],
      "name": "RebalanceUnavailable",
      "type": "error"
    },
    {
      "inputs": [
        {
          "internalType": "uint256",
          "name": "softcap",
          "type": "uint256"
        },
        {
          "internalType": "uint256",
          "name": "newBasePosition",
          "type": "uint256"
        }
      ],
      "name": "RedeemableSoftCapHit",
      "type": "error"
    },
    {
      "inputs": [],
      "name": "ZeroAmount",
      "type": "error"
    },
    {
      "anonymous": false,
      "inputs": [
        {
          "indexed": false,
          "internalType": "address",
          "name": "previousAdmin",
          "type": "address"
        },
        {
          "indexed": false,
          "internalType": "address",
          "name": "newAdmin",
          "type": "address"
        }
      ],
      "name": "AdminChanged",
      "type": "event"
    },
    {
      "anonymous": false,
      "inputs": [
        {
          "indexed": true,
          "internalType": "address",
          "name": "beacon",
          "type": "address"
        }
      ],
      "name": "BeaconUpgraded",
      "type": "event"
    },
    {
      "anonymous": false,
      "inputs": [
        {
          "indexed": false,
          "internalType": "uint8",
          "name": "version",
          "type": "uint8"
        }
      ],
      "name": "Initialized",
      "type": "event"
    },
    {
      "anonymous": false,
      "inputs": [
        {
          "indexed": true,
          "internalType": "address",
          "name": "caller",
          "type": "address"
        },
        {
          "indexed": true,
          "internalType": "address",
          "name": "from",
          "type": "address"
        },
        {
          "indexed": false,
          "internalType": "uint256",
          "name": "amount",
          "type": "uint256"
        }
      ],
      "name": "InsuranceDeposited",
      "type": "event"
    },
    {
      "anonymous": false,
      "inputs": [
        {
          "indexed": true,
          "internalType": "address",
          "name": "caller",
          "type": "address"
        },
        {
          "indexed": true,
          "internalType": "address",
          "name": "to",
          "type": "address"
        },
        {
          "indexed": false,
          "internalType": "uint256",
          "name": "amount",
          "type": "uint256"
        }
      ],
      "name": "InsuranceWithdrawn",
      "type": "event"
    },
    {
      "anonymous": false,
      "inputs": [
        {
          "indexed": true,
          "internalType": "address",
          "name": "previousOwner",
          "type": "address"
        },
        {
          "indexed": true,
          "internalType": "address",
          "name": "newOwner",
          "type": "address"
        }
      ],
      "name": "OwnershipTransferred",
      "type": "event"
    },
    {
      "anonymous": false,
      "inputs": [
        {
          "indexed": false,
          "internalType": "bool",
          "name": "isShort",
          "type": "bool"
        },
        {
          "indexed": false,
          "internalType": "uint256",
          "name": "amount",
          "type": "uint256"
        },
        {
          "indexed": false,
          "internalType": "bool",
          "name": "amountIsInput",
          "type": "bool"
        },
        {
          "indexed": false,
          "internalType": "uint160",
          "name": "sqrtPriceLimitX96",
          "type": "uint160"
        }
      ],
      "name": "PositionOpened",
      "type": "event"
    },
    {
      "anonymous": false,
      "inputs": [
        {
          "indexed": false,
          "internalType": "uint256",
          "name": "baseAmount",
          "type": "uint256"
        },
        {
          "indexed": false,
          "internalType": "uint256",
          "name": "quoteAmount",
          "type": "uint256"
        },
        {
          "indexed": false,
          "internalType": "uint256",
          "name": "shortfall",
          "type": "uint256"
        }
      ],
      "name": "Rebalanced",
      "type": "event"
    },
    {
      "anonymous": false,
      "inputs": [
        {
          "indexed": true,
          "internalType": "address",
          "name": "caller",
          "type": "address"
        },
        {
          "indexed": false,
          "internalType": "uint256",
          "name": "newSoftCap",
          "type": "uint256"
        }
      ],
      "name": "RedeemableSoftCapUpdated",
      "type": "event"
    },
    {
      "anonymous": false,
      "inputs": [
        {
          "indexed": true,
          "internalType": "address",
          "name": "implementation",
          "type": "address"
        }
      ],
      "name": "Upgraded",
      "type": "event"
    },
    {
      "inputs": [],
      "name": "HUNDRED_PERCENT",
      "outputs": [
        {
          "internalType": "uint256",
          "name": "",
          "type": "uint256"
        }
      ],
      "stateMutability": "view",
      "type": "function"
    },
    {
      "inputs": [],
      "name": "VERSION",
      "outputs": [
        {
          "internalType": "string",
          "name": "",
          "type": "string"
        }
      ],
      "stateMutability": "pure",
      "type": "function"
    },
    {
      "inputs": [],
      "name": "baseToken",
      "outputs": [
        {
          "internalType": "address",
          "name": "",
          "type": "address"
        }
      ],
      "stateMutability": "view",
      "type": "function"
    },
    {
      "inputs": [],
      "name": "clearingHouse",
      "outputs": [
        {
          "internalType": "contract IClearingHouse",
          "name": "",
          "type": "address"
        }
      ],
      "stateMutability": "view",
      "type": "function"
    },
    {
      "inputs": [],
      "name": "collateralDeposited",
      "outputs": [
        {
          "internalType": "uint256",
          "name": "",
          "type": "uint256"
        }
      ],
      "stateMutability": "view",
      "type": "function"
    },
    {
      "inputs": [],
      "name": "controller",
      "outputs": [
        {
          "internalType": "address",
          "name": "",
          "type": "address"
        }
      ],
      "stateMutability": "view",
      "type": "function"
    },
    {
      "inputs": [
        {
          "internalType": "uint256",
          "name": "amount",
          "type": "uint256"
        }
      ],
      "name": "depositCollateral",
      "outputs": [],
      "stateMutability": "nonpayable",
      "type": "function"
    },
    {
      "inputs": [
        {
          "internalType": "uint256",
          "name": "amount",
          "type": "uint256"
        },
        {
          "internalType": "address",
          "name": "from",
          "type": "address"
        }
      ],
      "name": "depositInsurance",
      "outputs": [],
      "stateMutability": "nonpayable",
      "type": "function"
    },
    {
      "inputs": [],
      "name": "exchangeFee",
      "outputs": [
        {
          "internalType": "uint256",
          "name": "",
          "type": "uint256"
        }
      ],
      "stateMutability": "view",
      "type": "function"
    },
    {
      "inputs": [],
      "name": "exchangeFeeWad",
      "outputs": [
        {
          "internalType": "uint256",
          "name": "",
          "type": "uint256"
        }
      ],
      "stateMutability": "view",
      "type": "function"
    },
    {
      "inputs": [
        {
          "internalType": "address",
          "name": "account",
          "type": "address"
        }
      ],
      "name": "getAccountValue",
      "outputs": [
        {
          "internalType": "int256",
          "name": "",
          "type": "int256"
        }
      ],
      "stateMutability": "view",
      "type": "function"
    },
    {
      "inputs": [],
      "name": "getCurrentState",
      "outputs": [
        {
          "components": [
            {
              "internalType": "uint256",
              "name": "collateralDeposited",
              "type": "uint256"
            },
            {
              "internalType": "uint256",
              "name": "insuranceDeposited",
              "type": "uint256"
            },
            {
              "internalType": "uint256",
              "name": "redeemableUnderManagement",
              "type": "uint256"
            },
            {
              "internalType": "uint256",
              "name": "totalFeesPaid",
              "type": "uint256"
            },
            {
              "internalType": "uint256",
              "name": "redeemableSoftCap",
              "type": "uint256"
            }
          ],
          "internalType": "struct DepositoryState",
          "name": "",
          "type": "tuple"
        }
      ],
      "stateMutability": "view",
      "type": "function"
    },
    {
      "inputs": [
        {
          "internalType": "address",
          "name": "account",
          "type": "address"
        }
      ],
      "name": "getDebtValue",
      "outputs": [
        {
          "internalType": "uint256",
          "name": "",
          "type": "uint256"
        }
      ],
      "stateMutability": "view",
      "type": "function"
    },
    {
      "inputs": [],
      "name": "getFreeCollateral",
      "outputs": [
        {
          "internalType": "uint256",
          "name": "",
          "type": "uint256"
        }
      ],
      "stateMutability": "view",
      "type": "function"
    },
    {
      "inputs": [
        {
          "internalType": "address",
          "name": "_vault",
          "type": "address"
        },
        {
          "internalType": "address",
          "name": "_clearingHouse",
          "type": "address"
        },
        {
          "internalType": "address",
          "name": "_marketRegistry",
          "type": "address"
        },
        {
          "internalType": "address",
          "name": "_futuresMarket",
          "type": "address"
        },
        {
          "internalType": "address",
          "name": "_baseToken",
          "type": "address"
        },
        {
          "internalType": "address",
          "name": "_quoteToken",
          "type": "address"
        },
        {
          "internalType": "address",
          "name": "_controller",
          "type": "address"
        }
      ],
      "name": "initialize",
      "outputs": [],
      "stateMutability": "nonpayable",
      "type": "function"
    },
    {
      "inputs": [],
      "name": "insuranceDeposited",
      "outputs": [
        {
          "internalType": "uint256",
          "name": "",
          "type": "uint256"
        }
      ],
      "stateMutability": "view",
      "type": "function"
    },
    {
      "inputs": [],
      "name": "market",
      "outputs": [
        {
          "internalType": "address",
          "name": "",
          "type": "address"
        }
      ],
      "stateMutability": "view",
      "type": "function"
    },
    {
      "inputs": [],
      "name": "marketRegistry",
      "outputs": [
        {
          "internalType": "contract IMarketRegistry",
          "name": "",
          "type": "address"
        }
      ],
      "stateMutability": "view",
      "type": "function"
    },
    {
      "inputs": [
        {
          "components": [
            {
              "internalType": "uint256",
              "name": "amountToRedeem",
              "type": "uint256"
            },
            {
              "internalType": "address",
              "name": "baseToken",
              "type": "address"
            },
            {
              "internalType": "uint160",
              "name": "sqrtPriceLimitX96",
              "type": "uint160"
            },
            {
              "internalType": "address",
              "name": "user",
              "type": "address"
            }
          ],
          "internalType": "struct LongPositionParams",
          "name": "params",
          "type": "tuple"
        }
      ],
      "name": "openLong",
      "outputs": [
        {
          "internalType": "uint256",
          "name": "",
          "type": "uint256"
        },
        {
          "internalType": "uint256",
          "name": "",
          "type": "uint256"
        }
      ],
      "stateMutability": "nonpayable",
      "type": "function"
    },
    {
      "inputs": [
        {
          "components": [
            {
              "internalType": "uint256",
              "name": "amount",
              "type": "uint256"
            },
            {
              "internalType": "address",
              "name": "baseToken",
              "type": "address"
            },
            {
              "internalType": "uint160",
              "name": "sqrtPriceLimitX96",
              "type": "uint160"
            }
          ],
          "internalType": "struct ShortPositionParams",
          "name": "params",
          "type": "tuple"
        }
      ],
      "name": "openShort",
      "outputs": [
        {
          "internalType": "uint256",
          "name": "",
          "type": "uint256"
        },
        {
          "internalType": "uint256",
          "name": "",
          "type": "uint256"
        }
      ],
      "stateMutability": "nonpayable",
      "type": "function"
    },
    {
      "inputs": [],
      "name": "owner",
      "outputs": [
        {
          "internalType": "address",
          "name": "",
          "type": "address"
        }
      ],
      "stateMutability": "view",
      "type": "function"
    },
    {
      "inputs": [],
      "name": "positionValue",
      "outputs": [
        {
          "internalType": "int256",
          "name": "",
          "type": "int256"
        }
      ],
      "stateMutability": "view",
      "type": "function"
    },
    {
      "inputs": [
        {
          "internalType": "uint256",
          "name": "quoteAmount",
          "type": "uint256"
        }
      ],
      "name": "processQuoteMint",
      "outputs": [
        {
          "internalType": "uint256",
          "name": "",
          "type": "uint256"
        }
      ],
      "stateMutability": "nonpayable",
      "type": "function"
    },
    {
      "inputs": [
        {
          "internalType": "uint256",
          "name": "redeemableAmount",
          "type": "uint256"
        },
        {
          "internalType": "address",
          "name": "account",
          "type": "address"
        }
      ],
      "name": "processQuoteRedeem",
      "outputs": [
        {
          "internalType": "uint256",
          "name": "",
          "type": "uint256"
        }
      ],
      "stateMutability": "nonpayable",
      "type": "function"
    },
    {
      "inputs": [],
      "name": "proxiableUUID",
      "outputs": [
        {
          "internalType": "bytes32",
          "name": "",
          "type": "bytes32"
        }
      ],
      "stateMutability": "view",
      "type": "function"
    },
    {
      "inputs": [],
      "name": "quoteMinted",
      "outputs": [
        {
          "internalType": "int256",
          "name": "",
          "type": "int256"
        }
      ],
      "stateMutability": "view",
      "type": "function"
    },
    {
      "inputs": [],
      "name": "quoteToken",
      "outputs": [
        {
          "internalType": "address",
          "name": "",
          "type": "address"
        }
      ],
      "stateMutability": "view",
      "type": "function"
    },
    {
      "inputs": [
        {
          "internalType": "uint256",
          "name": "amount",
          "type": "uint256"
        },
        {
          "internalType": "uint256",
          "name": "amountOutMinimum",
          "type": "uint256"
        },
        {
          "internalType": "uint160",
          "name": "sqrtPriceLimitX96",
          "type": "uint160"
        },
        {
          "internalType": "uint24",
          "name": "swapPoolFee",
          "type": "uint24"
        },
        {
          "internalType": "int8",
          "name": "polarity",
          "type": "int8"
        },
        {
          "internalType": "address",
          "name": "account",
          "type": "address"
        }
      ],
      "name": "rebalance",
      "outputs": [
        {
          "internalType": "uint256",
          "name": "",
          "type": "uint256"
        },
        {
          "internalType": "uint256",
          "name": "",
          "type": "uint256"
        }
      ],
      "stateMutability": "nonpayable",
      "type": "function"
    },
    {
      "inputs": [
        {
          "internalType": "uint256",
          "name": "amount",
          "type": "uint256"
        },
        {
          "internalType": "int8",
          "name": "polarity",
          "type": "int8"
        },
        {
          "internalType": "uint160",
          "name": "sqrtPriceLimitX96",
          "type": "uint160"
        },
        {
          "internalType": "address",
          "name": "account",
          "type": "address"
        }
      ],
      "name": "rebalanceLite",
      "outputs": [
        {
          "internalType": "uint256",
          "name": "",
          "type": "uint256"
        },
        {
          "internalType": "uint256",
          "name": "",
          "type": "uint256"
        }
      ],
      "stateMutability": "nonpayable",
      "type": "function"
    },
    {
      "inputs": [],
      "name": "redeemableSoftCap",
      "outputs": [
        {
          "internalType": "uint256",
          "name": "",
          "type": "uint256"
        }
      ],
      "stateMutability": "view",
      "type": "function"
    },
    {
      "inputs": [],
      "name": "redeemableUnderManagement",
      "outputs": [
        {
          "internalType": "uint256",
          "name": "",
          "type": "uint256"
        }
      ],
      "stateMutability": "view",
      "type": "function"
    },
    {
      "inputs": [],
      "name": "renounceOwnership",
      "outputs": [],
      "stateMutability": "nonpayable",
      "type": "function"
    },
    {
      "inputs": [
        {
          "internalType": "address",
          "name": "_controller",
          "type": "address"
        }
      ],
      "name": "setController",
      "outputs": [],
      "stateMutability": "nonpayable",
      "type": "function"
    },
    {
      "inputs": [
        {
          "internalType": "uint256",
          "name": "softCap",
          "type": "uint256"
        }
      ],
      "name": "setRedeemableSoftCap",
      "outputs": [],
      "stateMutability": "nonpayable",
      "type": "function"
    },
    {
      "inputs": [
        {
          "internalType": "address",
          "name": "_swapper",
          "type": "address"
        }
      ],
      "name": "setSpotSwapper",
      "outputs": [],
      "stateMutability": "nonpayable",
      "type": "function"
    },
    {
      "inputs": [],
      "name": "spotSwapper",
      "outputs": [
        {
          "internalType": "contract ISwapper",
          "name": "",
          "type": "address"
        }
      ],
      "stateMutability": "view",
      "type": "function"
    },
    {
      "inputs": [],
      "name": "totalFeesPaid",
      "outputs": [
        {
          "internalType": "uint256",
          "name": "",
          "type": "uint256"
        }
      ],
      "stateMutability": "view",
      "type": "function"
    },
    {
      "inputs": [
        {
          "internalType": "address",
          "name": "newOwner",
          "type": "address"
        }
      ],
      "name": "transferOwnership",
      "outputs": [],
      "stateMutability": "nonpayable",
      "type": "function"
    },
    {
      "inputs": [],
      "name": "unrealizedPnl",
      "outputs": [
        {
          "internalType": "int256",
          "name": "",
          "type": "int256"
        }
      ],
      "stateMutability": "view",
      "type": "function"
    },
    {
      "inputs": [
        {
          "internalType": "address",
          "name": "newImplementation",
          "type": "address"
        }
      ],
      "name": "upgradeTo",
      "outputs": [],
      "stateMutability": "nonpayable",
      "type": "function"
    },
    {
      "inputs": [
        {
          "internalType": "address",
          "name": "newImplementation",
          "type": "address"
        },
        {
          "internalType": "bytes",
          "name": "data",
          "type": "bytes"
        }
      ],
      "name": "upgradeToAndCall",
      "outputs": [],
      "stateMutability": "payable",
      "type": "function"
    },
    {
      "inputs": [],
      "name": "vault",
      "outputs": [
        {
          "internalType": "contract IVault",
          "name": "",
          "type": "address"
        }
      ],
      "stateMutability": "view",
      "type": "function"
    },
    {
      "inputs": [
        {
          "internalType": "uint256",
          "name": "amount",
          "type": "uint256"
        },
        {
          "internalType": "address",
          "name": "to",
          "type": "address"
        }
      ],
      "name": "withdrawCollateral",
      "outputs": [],
      "stateMutability": "nonpayable",
      "type": "function"
    },
    {
      "inputs": [
        {
          "internalType": "uint256",
          "name": "amount",
          "type": "uint256"
        },
        {
          "internalType": "address",
          "name": "to",
          "type": "address"
        }
      ],
      "name": "withdrawInsurance",
      "outputs": [],
      "stateMutability": "nonpayable",
      "type": "function"
    }
  ],
  "bytecode": "0x60a06040523060805234801561001457600080fd5b50608051614ba161004c600039600081816111050152818161119b0152818161167d015281816117130152611b4f0152614ba16000f3fe6080604052600436106102e75760003560e01c80636ed93dd011610184578063c55dae63116100d6578063ebf5a9081161008a578063f77c479111610064578063f77c4791146107ec578063fbfa77cf1461080d578063ffa1ad741461082d57600080fd5b8063ebf5a9081461078c578063ecb96fe6146107ac578063f2fde38b146107cc57600080fd5b8063de2b1ff2116100bb578063de2b1ff214610735578063e4bdc4d214610755578063e9fd58621461077557600080fd5b8063c55dae63146106ff578063c96d78841461072057600080fd5b806389b211af11610138578063bad4a01f11610112578063bad4a01f146106b1578063bdf7f54e146106d1578063be3519a2146106e857600080fd5b806389b211af146106535780638da5cb5b1461067357806392eefe9b1461069157600080fd5b8063715018a611610169578063715018a6146105fd57806379604f0c1461061257806380f556051461063257600080fd5b80636ed93dd0146105d15780636f187417146105e857600080fd5b806339af3a811161023d5780634f1ef286116101f15780635ae80951116101cb5780635ae809511461057a5780636311d06a1461059a57806365c4f126146105b157600080fd5b80634f1ef286146105325780634f3de3a91461054557806352d1902d1461056557600080fd5b80633eef0762116102225780633eef0762146104c8578063487b00c2146104dd5780634a2accc21461051257600080fd5b806339af3a81146104915780633c94de54146104b157600080fd5b806323ae71521161029f578063358764761161027957806335876476146103fa5780633659cfe61461041a578063378aa7011461043a57600080fd5b806323ae7152146103ae5780632ecd3be4146103c557806334e0e38b146103da57600080fd5b8063190e03ec116102d0578063190e03ec1461034b5780631dbec08e1461036b578063217a4b701461038e57600080fd5b80630af504cc146102ec5780630af968001461030e575b600080fd5b3480156102f857600080fd5b5061030c610307366004614333565b610879565b005b34801561031a57600080fd5b5060fc5461032e906001600160a01b031681565b6040516001600160a01b0390911681526020015b60405180910390f35b34801561035757600080fd5b5060fe5461032e906001600160a01b031681565b34801561037757600080fd5b506103806109b9565b604051908152602001610342565b34801561039a57600080fd5b5060ff5461032e906001600160a01b031681565b3480156103ba57600080fd5b506103806101045481565b3480156103d157600080fd5b50610380610af0565b3480156103e657600080fd5b506103806103f5366004614333565b610b98565b34801561040657600080fd5b5061030c610415366004614363565b610d95565b34801561042657600080fd5b5061030c6104353660046143f9565b6110fa565b34801561044657600080fd5b5061044f611298565b6040516103429190600060a082019050825182526020830151602083015260408301516040830152606083015160608301526080830151608083015292915050565b34801561049d57600080fd5b5061030c6104ac3660046143f9565b611305565b3480156104bd57600080fd5b506103806101075481565b3480156104d457600080fd5b5061038061137c565b3480156104e957600080fd5b506104fd6104f8366004614428565b6114b4565b60408051928352602083019190915201610342565b34801561051e57600080fd5b506104fd61052d36600461448a565b611590565b61030c61054036600461453f565b611672565b34801561055157600080fd5b5061030c610560366004614333565b611801565b34801561057157600080fd5b50610380611b42565b34801561058657600080fd5b506103806105953660046143f9565b611c07565b3480156105a657600080fd5b506103806101035481565b3480156105bd57600080fd5b506104fd6105cc3660046145e7565b611c9e565b3480156105dd57600080fd5b50610380620f424081565b3480156105f457600080fd5b50610380611d17565b34801561060957600080fd5b5061030c611d61565b34801561061e57600080fd5b506104fd61062d366004614663565b611d75565b34801561063e57600080fd5b506101015461032e906001600160a01b031681565b34801561065f57600080fd5b5061030c61066e366004614333565b611dfc565b34801561067f57600080fd5b506097546001600160a01b031661032e565b34801561069d57600080fd5b5061030c6106ac3660046143f9565b611fca565b3480156106bd57600080fd5b5061030c6106cc3660046146cc565b612042565b3480156106dd57600080fd5b506103806101085481565b3480156106f457600080fd5b506103806101055481565b34801561070b57600080fd5b506101005461032e906001600160a01b031681565b34801561072c57600080fd5b5061038061217e565b34801561074157600080fd5b5061030c6107503660046146cc565b612247565b34801561076157600080fd5b506103806107703660046146cc565b6122ab565b34801561078157600080fd5b506103806101065481565b34801561079857600080fd5b506103806107a73660046143f9565b6124b0565b3480156107b857600080fd5b5060fd5461032e906001600160a01b031681565b3480156107d857600080fd5b5061030c6107e73660046143f9565b612877565b3480156107f857600080fd5b506101025461032e906001600160a01b031681565b34801561081957600080fd5b5060fb5461032e906001600160a01b031681565b34801561083957600080fd5b50604080518082018252600581527f312e302e30000000000000000000000000000000000000000000000000000000602082015290516103429190614711565b610102546001600160a01b031633146108ac57604051633338cdbd60e11b81523360048201526024015b60405180910390fd5b8161010360008282546108bf919061475a565b909155505060fb546101005460405163f3fef3a360e01b81526001600160a01b0391821660048201526024810185905291169063f3fef3a390604401600060405180830381600087803b15801561091557600080fd5b505af1158015610929573d6000803e3d6000fd5b50506101005460405163a9059cbb60e01b81526001600160a01b03858116600483015260248201879052909116925063a9059cbb9150604401602060405180830381600087803b15801561097c57600080fd5b505af1158015610990573d6000803e3d6000fd5b505050506040513d601f19601f820116820180604052508101906109b49190614771565b505050565b60008060fc60009054906101000a90046001600160a01b03166001600160a01b0316636896fabf6040518163ffffffff1660e01b815260040160206040518083038186803b158015610a0a57600080fd5b505afa158015610a1e573d6000803e3d6000fd5b505050506040513d601f19601f82011682018060405250810190610a429190614793565b6040517f6ccdc82e0000000000000000000000000000000000000000000000000000000081523060048201529091506000906001600160a01b03831690636ccdc82e9060240160206040518083038186803b158015610aa057600080fd5b505afa158015610ab4573d6000803e3d6000fd5b505050506040513d601f19601f82011682018060405250810190610ad891906147b0565b90508061010554610ae991906147c9565b9250505090565b60fd54610101546040517fedd0b5cb0000000000000000000000000000000000000000000000000000000081526001600160a01b039182166004820152600092919091169063edd0b5cb9060240160206040518083038186803b158015610b5657600080fd5b505afa158015610b6a573d6000803e3d6000fd5b505050506040513d601f19601f82011682018060405250810190610b8e9190614821565b62ffffff16905090565b610102546000906001600160a01b03163314610bc957604051633338cdbd60e11b81523360048201526024016108a3565b610bd283612904565b826101086000828254610be591906147c9565b92505081905550826101056000828254610bff919061475a565b925050819055506000610c9b601260ff60009054906101000a90046001600160a01b03166001600160a01b031663313ce5676040518163ffffffff1660e01b815260040160206040518083038186803b158015610c5b57600080fd5b505afa158015610c6f573d6000803e3d6000fd5b505050506040513d601f19601f82011682018060405250810190610c93919061483e565b869190612960565b60fb5460ff5460405163f3fef3a360e01b81526001600160a01b03918216600482015260248101849052929350169063f3fef3a390604401600060405180830381600087803b158015610ced57600080fd5b505af1158015610d01573d6000803e3d6000fd5b505060ff5460405163a9059cbb60e01b81526001600160a01b03878116600483015260248201869052909116925063a9059cbb9150604401602060405180830381600087803b158015610d5357600080fd5b505af1158015610d67573d6000803e3d6000fd5b505050506040513d601f19601f82011682018060405250810190610d8b9190614771565b5090505b92915050565b600054610100900460ff1615808015610db55750600054600160ff909116105b80610dcf5750303b158015610dcf575060005460ff166001145b610e415760405162461bcd60e51b815260206004820152602e60248201527f496e697469616c697a61626c653a20636f6e747261637420697320616c72656160448201527f647920696e697469616c697a656400000000000000000000000000000000000060648201526084016108a3565b600080547fffffffffffffffffffffffffffffffffffffffffffffffffffffffffffffff001660011790558015610e82576000805461ff0019166101001790555b610e8a612996565b610e92612a1b565b60408051600780825261010082019092526000916020820160e0803683370190505090508881600081518110610eca57610eca614861565b60200260200101906001600160a01b031690816001600160a01b0316815250508781600181518110610efe57610efe614861565b60200260200101906001600160a01b031690816001600160a01b0316815250508681600281518110610f3257610f32614861565b60200260200101906001600160a01b031690816001600160a01b0316815250508581600381518110610f6657610f66614861565b60200260200101906001600160a01b031690816001600160a01b0316815250508481600481518110610f9a57610f9a614861565b60200260200101906001600160a01b031690816001600160a01b0316815250508381600581518110610fce57610fce614861565b60200260200101906001600160a01b031690816001600160a01b031681525050828160068151811061100257611002614861565b60200260200101906001600160a01b031690816001600160a01b03168152505061102b81612a98565b5060fc805473ffffffffffffffffffffffffffffffffffffffff199081166001600160a01b038a81169190911790925560fb805482168b841617905560fd805482168984161790556101028054821685841617905560ff8054821686841617905561010080548216878416179055610101805490911691871691909117905580156110f0576000805461ff0019169055604051600181527f7f26b83ff96e1f2b6a682f133852f6798a09c465da95921460cefb38474024989060200160405180910390a15b5050505050505050565b306001600160a01b037f00000000000000000000000000000000000000000000000000000000000000001614156111995760405162461bcd60e51b815260206004820152602c60248201527f46756e6374696f6e206d7573742062652063616c6c6564207468726f7567682060448201527f64656c656761746563616c6c000000000000000000000000000000000000000060648201526084016108a3565b7f00000000000000000000000000000000000000000000000000000000000000006001600160a01b03166111f47f360894a13ba1a3210667c828492db98dca3e2076cc3735a920a3ca505d382bbc546001600160a01b031690565b6001600160a01b0316146112705760405162461bcd60e51b815260206004820152602c60248201527f46756e6374696f6e206d7573742062652063616c6c6564207468726f7567682060448201527f6163746976652070726f7879000000000000000000000000000000000000000060648201526084016108a3565b61127981612b4b565b6040805160008082526020820190925261129591839190612b53565b50565b6112ca6040518060a0016040528060008152602001600081526020016000815260200160008152602001600081525090565b6040518060a0016040528061010354815260200161010454815260200161010554815260200161010654815260200161010754815250905090565b61130d612d02565b6001600160a01b03811661134d576040517fecc6fdf000000000000000000000000000000000000000000000000000000000815260040160405180910390fd5b60fe805473ffffffffffffffffffffffffffffffffffffffff19166001600160a01b0392909216919091179055565b60fc54604080517f6896fabf00000000000000000000000000000000000000000000000000000000815290516000926001600160a01b031691636896fabf916004808301926020929190829003018186803b1580156113da57600080fd5b505afa1580156113ee573d6000803e3d6000fd5b505050506040513d601f19601f820116820180604052508101906114129190614793565b610101546040517f3f9351070000000000000000000000000000000000000000000000000000000081523060048201526001600160a01b039182166024820152911690633f935107906044015b60206040518083038186803b15801561147757600080fd5b505afa15801561148b573d6000803e3d6000fd5b505050506040513d601f19601f820116820180604052508101906114af91906147b0565b905090565b600080600260c954141561150a5760405162461bcd60e51b815260206004820152601f60248201527f5265656e7472616e637947756172643a207265656e7472616e742063616c6c0060448201526064016108a3565b600260c955600019600086900b141561153157611528868585612d5c565b91509150611580565b8460000b60011415611548576115288685856130d7565b6040517fe2b4c0a5000000000000000000000000000000000000000000000000000000008152600086900b60048201526024016108a3565b600160c955909590945092505050565b600080600260c95414156115e65760405162461bcd60e51b815260206004820152601f60248201527f5265656e7472616e637947756172643a207265656e7472616e742063616c6c0060448201526064016108a3565b600260c955600019600085900b141561160f576116068888888887613456565b91509150611660565b8360000b600114156116285761160688888888876138d3565b6040517fe2b4c0a5000000000000000000000000000000000000000000000000000000008152600085900b60048201526024016108a3565b600160c9559097909650945050505050565b306001600160a01b037f00000000000000000000000000000000000000000000000000000000000000001614156117115760405162461bcd60e51b815260206004820152602c60248201527f46756e6374696f6e206d7573742062652063616c6c6564207468726f7567682060448201527f64656c656761746563616c6c000000000000000000000000000000000000000060648201526084016108a3565b7f00000000000000000000000000000000000000000000000000000000000000006001600160a01b031661176c7f360894a13ba1a3210667c828492db98dca3e2076cc3735a920a3ca505d382bbc546001600160a01b031690565b6001600160a01b0316146117e85760405162461bcd60e51b815260206004820152602c60248201527f46756e6374696f6e206d7573742062652063616c6c6564207468726f7567682060448201527f6163746976652070726f7879000000000000000000000000000000000000000060648201526084016108a3565b6117f182612b4b565b6117fd82826001612b53565b5050565b600260c95414156118545760405162461bcd60e51b815260206004820152601f60248201527f5265656e7472616e637947756172643a207265656e7472616e742063616c6c0060448201526064016108a3565b600260c955611861612d02565b8161187f57604051631f2a200560e01b815260040160405180910390fd5b60ff546040517fdd62ed3e0000000000000000000000000000000000000000000000000000000081526001600160a01b038381166004830152306024830152600092169063dd62ed3e9060440160206040518083038186803b1580156118e457600080fd5b505afa1580156118f8573d6000803e3d6000fd5b505050506040513d601f19601f8201168201806040525081019061191c91906147b0565b905082811015611962576040517f9912131900000000000000000000000000000000000000000000000000000000815260048101829052602481018490526044016108a3565b8261010460008282546119759190614877565b909155505060ff546040516323b872dd60e01b81526001600160a01b03848116600483015230602483015260448201869052909116906323b872dd90606401602060405180830381600087803b1580156119ce57600080fd5b505af11580156119e2573d6000803e3d6000fd5b505050506040513d601f19601f82011682018060405250810190611a069190614771565b5060ff5460fb5460405163095ea7b360e01b81526001600160a01b0391821660048201526024810186905291169063095ea7b390604401602060405180830381600087803b158015611a5757600080fd5b505af1158015611a6b573d6000803e3d6000fd5b505050506040513d601f19601f82011682018060405250810190611a8f9190614771565b5060fb5460ff546040516311f9fbc960e21b81526001600160a01b039182166004820152602481018690529116906347e7ef2490604401600060405180830381600087803b158015611ae057600080fd5b505af1158015611af4573d6000803e3d6000fd5b50506040518581526001600160a01b03851692503391507f27a53222ef7efd93a8a1530cf4a3d41220d5f26def9b04b88cdd34fb89f433f69060200160405180910390a35050600160c95550565b6000306001600160a01b037f00000000000000000000000000000000000000000000000000000000000000001614611be25760405162461bcd60e51b815260206004820152603860248201527f555550535570677261646561626c653a206d757374206e6f742062652063616c60448201527f6c6564207468726f7567682064656c656761746563616c6c000000000000000060648201526084016108a3565b507f360894a13ba1a3210667c828492db98dca3e2076cc3735a920a3ca505d382bbc90565b60fc546040517f5ae809510000000000000000000000000000000000000000000000000000000081526001600160a01b0383811660048301526000921690635ae809519060240160206040518083038186803b158015611c6657600080fd5b505afa158015611c7a573d6000803e3d6000fd5b505050506040513d601f19601f82011682018060405250810190610d8f91906147b0565b6101025460009081906001600160a01b03163314611cd157604051633338cdbd60e11b81523360048201526024016108a3565b60008060019050600080611cef876000015185858a60400151613c85565b91509150806101056000828254611d06919061475a565b909155509195509350505050915091565b60fb546040517fc39994440000000000000000000000000000000000000000000000000000000081523060048201526000916001600160a01b03169063c39994449060240161145f565b611d69612d02565b611d736000613e61565b565b6101025460009081906001600160a01b03163314611da857604051633338cdbd60e11b81523360048201526024016108a3565b600060019050600060019050600080611dcb876000015185858a60400151613c85565b91509150806101056000828254611de29190614877565b90915550611df09050613ec0565b90945092505050915091565b600260c9541415611e4f5760405162461bcd60e51b815260206004820152601f60248201527f5265656e7472616e637947756172643a207265656e7472616e742063616c6c0060448201526064016108a3565b600260c955611e5c612d02565b81611e7a57604051631f2a200560e01b815260040160405180910390fd5b816101046000828254611e8d919061475a565b909155505060fb5460ff5460405163f3fef3a360e01b81526001600160a01b0391821660048201526024810185905291169063f3fef3a390604401600060405180830381600087803b158015611ee257600080fd5b505af1158015611ef6573d6000803e3d6000fd5b505060ff5460405163a9059cbb60e01b81526001600160a01b03858116600483015260248201879052909116925063a9059cbb9150604401602060405180830381600087803b158015611f4857600080fd5b505af1158015611f5c573d6000803e3d6000fd5b505050506040513d601f19601f82011682018060405250810190611f809190614771565b506040518281526001600160a01b0382169033907febca967c406b3238e3b50354b2ae287ad6f68959ee41bf7bfea1342c5fe05b0e9060200160405180910390a35050600160c955565b611fd2612d02565b6001600160a01b038116612012576040517fecc6fdf000000000000000000000000000000000000000000000000000000000815260040160405180910390fd5b610102805473ffffffffffffffffffffffffffffffffffffffff19166001600160a01b0392909216919091179055565b610102546001600160a01b0316331461207057604051633338cdbd60e11b81523360048201526024016108a3565b8061010360008282546120839190614877565b90915550506101005460fb5460405163095ea7b360e01b81526001600160a01b0391821660048201526024810184905291169063095ea7b390604401602060405180830381600087803b1580156120d957600080fd5b505af11580156120ed573d6000803e3d6000fd5b505050506040513d601f19601f820116820180604052508101906121119190614771565b5060fb54610100546040516311f9fbc960e21b81526001600160a01b039182166004820152602481018490529116906347e7ef2490604401600060405180830381600087803b15801561216357600080fd5b505af1158015612177573d6000803e3d6000fd5b5050505050565b60fd54610101546040517fedd0b5cb0000000000000000000000000000000000000000000000000000000081526001600160a01b0391821660048201526000928392169063edd0b5cb9060240160206040518083038186803b1580156121e357600080fd5b505afa1580156121f7573d6000803e3d6000fd5b505050506040513d601f19601f8201168201806040525081019061221b9190614821565b62ffffff169050612241620f424061223b83670de0b6b3a7640000613f11565b90613f26565b91505090565b61224f612d02565b8061226d57604051631f2a200560e01b815260040160405180910390fd5b61010781905560405181815233907f34bdcf409ce95f734fb7583240c6266616d468cf38e556801bdb3e7e8733a5559060200160405180910390a250565b610102546000906001600160a01b031633146122dc57604051633338cdbd60e11b81523360048201526024016108a3565b600061237060ff60009054906101000a90046001600160a01b03166001600160a01b031663313ce5676040518163ffffffff1660e01b815260040160206040518083038186803b15801561232f57600080fd5b505afa158015612343573d6000803e3d6000fd5b505050506040513d601f19601f82011682018060405250810190612367919061483e565b84906012612960565b905061237b81613f3b565b80610108600082825461238e919061488f565b925050819055508061010560008282546123a89190614877565b909155506123b69050613ec0565b60ff5460fb5460405163095ea7b360e01b81526001600160a01b0391821660048201526024810186905291169063095ea7b390604401602060405180830381600087803b15801561240657600080fd5b505af115801561241a573d6000803e3d6000fd5b505050506040513d601f19601f8201168201806040525081019061243e9190614771565b5060fb5460ff546040516311f9fbc960e21b81526001600160a01b039182166004820152602481018690529116906347e7ef2490604401600060405180830381600087803b15801561248f57600080fd5b505af11580156124a3573d6000803e3d6000fd5b509293505050505b919050565b60008060fc60009054906101000a90046001600160a01b03166001600160a01b0316636896fabf6040518163ffffffff1660e01b815260040160206040518083038186803b15801561250157600080fd5b505afa158015612515573d6000803e3d6000fd5b505050506040513d601f19601f820116820180604052508101906125399190614793565b9050600060fc60009054906101000a90046001600160a01b03166001600160a01b031663f807cd226040518163ffffffff1660e01b815260040160206040518083038186803b15801561258b57600080fd5b505afa15801561259f573d6000803e3d6000fd5b505050506040513d601f19601f820116820180604052508101906125c39190614793565b60fb546040517ff8b2cb4f0000000000000000000000000000000000000000000000000000000081526001600160a01b0387811660048301529293506000929091169063f8b2cb4f9060240160206040518083038186803b15801561262757600080fd5b505afa15801561263b573d6000803e3d6000fd5b505050506040513d601f19601f8201168201806040525081019061265f91906147b0565b9050600081121561269f576040517fb8176028000000000000000000000000000000000000000000000000000000008152600481018290526024016108a3565b6040517f80f57f110000000000000000000000000000000000000000000000000000000081526001600160a01b038681166004830152600091908416906380f57f119060240160206040518083038186803b1580156126fd57600080fd5b505afa158015612711573d6000803e3d6000fd5b505050506040513d601f19601f8201168201806040525081019061273591906147b0565b9050600061278a60ff60009054906101000a90046001600160a01b03166001600160a01b031663313ce5676040518163ffffffff1660e01b815260040160206040518083038186803b15801561232f57600080fd5b6040517fbba85bcf0000000000000000000000000000000000000000000000000000000081526001600160a01b03898116600483015291925060009182919088169063bba85bcf9060240160606040518083038186803b1580156127ed57600080fd5b505afa158015612801573d6000803e3d6000fd5b505050506040513d601f19601f8201168201806040525081019061282591906148e7565b925092505060008482848661283a919061488f565b61284491906147c9565b61284e91906147c9565b9050600081136128665761286181613f9e565b612869565b60005b9a9950505050505050505050565b61287f612d02565b6001600160a01b0381166128fb5760405162461bcd60e51b815260206004820152602660248201527f4f776e61626c653a206e6577206f776e657220697320746865207a65726f206160448201527f646472657373000000000000000000000000000000000000000000000000000060648201526084016108a3565b61129581613e61565b600061290e6109b9565b905060008113158061291f57508181105b156117fd576040517f1f04c58a00000000000000000000000000000000000000000000000000000000815260048101829052602481018390526044016108a3565b600061296d83600a6149f9565b61297883600a6149f9565b6129829086614a08565b61298c9190614a27565b90505b9392505050565b600054610100900460ff16612a135760405162461bcd60e51b815260206004820152602b60248201527f496e697469616c697a61626c653a20636f6e7472616374206973206e6f74206960448201527f6e697469616c697a696e6700000000000000000000000000000000000000000060648201526084016108a3565b611d73613fbd565b600054610100900460ff16611d735760405162461bcd60e51b815260206004820152602b60248201527f496e697469616c697a61626c653a20636f6e7472616374206973206e6f74206960448201527f6e697469616c697a696e6700000000000000000000000000000000000000000060648201526084016108a3565b60005b81518110156117fd57612ad9828281518110612ab957612ab9614861565b60200260200101516001600160a01b03166001600160a01b03163b151590565b612b3957818181518110612aef57612aef614861565b60200260200101516040517f247e97010000000000000000000000000000000000000000000000000000000081526004016108a391906001600160a01b0391909116815260200190565b80612b4381614a49565b915050612a9b565b611295612d02565b7f4910fdfa16fed3260ed0e7147f7cc6da11a60208b5b9406d12a635614ffd91435460ff1615612b86576109b483614043565b826001600160a01b03166352d1902d6040518163ffffffff1660e01b815260040160206040518083038186803b158015612bbf57600080fd5b505afa925050508015612bef575060408051601f3d908101601f19168201909252612bec918101906147b0565b60015b612c615760405162461bcd60e51b815260206004820152602e60248201527f45524331393637557067726164653a206e657720696d706c656d656e7461746960448201527f6f6e206973206e6f74205555505300000000000000000000000000000000000060648201526084016108a3565b7f360894a13ba1a3210667c828492db98dca3e2076cc3735a920a3ca505d382bbc8114612cf65760405162461bcd60e51b815260206004820152602960248201527f45524331393637557067726164653a20756e737570706f727465642070726f7860448201527f6961626c6555554944000000000000000000000000000000000000000000000060648201526084016108a3565b506109b483838361410e565b6097546001600160a01b03163314611d735760405162461bcd60e51b815260206004820181905260248201527f4f776e61626c653a2063616c6c6572206973206e6f7420746865206f776e657260448201526064016108a3565b6000806000612df360ff60009054906101000a90046001600160a01b03166001600160a01b031663313ce5676040518163ffffffff1660e01b815260040160206040518083038186803b158015612db257600080fd5b505afa158015612dc6573d6000803e3d6000fd5b505050506040513d601f19601f82011682018060405250810190612dea919061483e565b87906012612960565b9050612dfe81613f3b565b60ff546040516323b872dd60e01b81526001600160a01b03868116600483015230602483015260448201899052909116906323b872dd90606401602060405180830381600087803b158015612e5257600080fd5b505af1158015612e66573d6000803e3d6000fd5b505050506040513d601f19601f82011682018060405250810190612e8a9190614771565b5060ff5460fb5460405163095ea7b360e01b81526001600160a01b0391821660048201526024810189905291169063095ea7b390604401602060405180830381600087803b158015612edb57600080fd5b505af1158015612eef573d6000803e3d6000fd5b505050506040513d601f19601f82011682018060405250810190612f139190614771565b5060fb5460ff546040516311f9fbc960e21b81526001600160a01b039182166004820152602481018990529116906347e7ef2490604401600060405180830381600087803b158015612f6457600080fd5b505af1158015612f78573d6000803e3d6000fd5b5050505060008060019050600080612f928585858c613c85565b60fb546101005460405163f3fef3a360e01b81526001600160a01b03918216600482015260248101859052939550919350169063f3fef3a390604401600060405180830381600087803b158015612fe857600080fd5b505af1158015612ffc573d6000803e3d6000fd5b50506101005460405163a9059cbb60e01b81526001600160a01b038c8116600483015260248201879052909116925063a9059cbb9150604401602060405180830381600087803b15801561304f57600080fd5b505af1158015613063573d6000803e3d6000fd5b505050506040513d601f19601f820116820180604052508101906130879190614771565b50604080518381526020810183905260008183015290517f83387a3342ff1ebc5e437dc9ae0f98274afda12a11cf547eebec05a3e0b8f8a79181900360600190a190999098509650505050505050565b600080600061312d60ff60009054906101000a90046001600160a01b03166001600160a01b031663313ce5676040518163ffffffff1660e01b815260040160206040518083038186803b158015612db257600080fd5b905061313881612904565b60016000808061314a8585838c613c85565b91509150600061316261315b61217e565b8490613f11565b61316c9084614877565b610100546040516323b872dd60e01b81526001600160a01b038c81166004830152306024830152604482018490529293509116906323b872dd90606401602060405180830381600087803b1580156131c357600080fd5b505af11580156131d7573d6000803e3d6000fd5b505050506040513d601f19601f820116820180604052508101906131fb9190614771565b506101005460fb5460405163095ea7b360e01b81526001600160a01b0391821660048201526024810184905291169063095ea7b390604401602060405180830381600087803b15801561324d57600080fd5b505af1158015613261573d6000803e3d6000fd5b505050506040513d601f19601f820116820180604052508101906132859190614771565b5060fb54610100546040516311f9fbc960e21b81526001600160a01b039182166004820152602481018490529116906347e7ef2490604401600060405180830381600087803b1580156132d757600080fd5b505af11580156132eb573d6000803e3d6000fd5b505060fb5460ff5460405163f3fef3a360e01b81526001600160a01b03928316945063f3fef3a3935061333b9291909116908f906004016001600160a01b03929092168252602082015260400190565b600060405180830381600087803b15801561335557600080fd5b505af1158015613369573d6000803e3d6000fd5b505060ff5460405163a9059cbb60e01b81526001600160a01b03909116925063a9059cbb91506133b3908c908f906004016001600160a01b03929092168252602082015260400190565b602060405180830381600087803b1580156133cd57600080fd5b505af11580156133e1573d6000803e3d6000fd5b505050506040513d601f19601f820116820180604052508101906134059190614771565b50604080518481526020810184905260008183015290517f83387a3342ff1ebc5e437dc9ae0f98274afda12a11cf547eebec05a3e0b8f8a79181900360600190a15090999098509650505050505050565b60008060006134ed60ff60009054906101000a90046001600160a01b03166001600160a01b031663313ce5676040518163ffffffff1660e01b815260040160206040518083038186803b1580156134ac57600080fd5b505afa1580156134c0573d6000803e3d6000fd5b505050506040513d601f19601f820116820180604052508101906134e4919061483e565b89906012612960565b90506134f881613f3b565b60006001818061350a8582858d613c85565b60fb546101005460405163f3fef3a360e01b81526001600160a01b03918216600482015260248101859052939550919350169063f3fef3a390604401600060405180830381600087803b15801561356057600080fd5b505af1158015613574573d6000803e3d6000fd5b5050505060006040518060c0016040528061010060009054906101000a90046001600160a01b03166001600160a01b0316815260200160ff60009054906101000a90046001600160a01b03166001600160a01b031681526020018481526020018d81526020018c6001600160a01b031681526020018b62ffffff168152509050600060fe60009054906101000a90046001600160a01b03166001600160a01b03166368e32802836040518263ffffffff1660e01b815260040161368a9190600060c0820190506001600160a01b0380845116835280602085015116602084015260408401516040840152606084015160608401528060808501511660808401525062ffffff60a08401511660a083015292915050565b602060405180830381600087803b1580156136a457600080fd5b505af11580156136b8573d6000803e3d6000fd5b505050506040513d601f19601f820116820180604052508101906136dc91906147b0565b9050600081613774601260ff60009054906101000a90046001600160a01b03166001600160a01b031663313ce5676040518163ffffffff1660e01b815260040160206040518083038186803b15801561373457600080fd5b505afa158015613748573d6000803e3d6000fd5b505050506040513d601f19601f8201168201806040525081019061376c919061483e565b879190612960565b61377e919061475a565b905080156138145760ff546040516323b872dd60e01b81526001600160a01b038d8116600483015230602483015260448201849052909116906323b872dd90606401602060405180830381600087803b1580156137da57600080fd5b505af11580156137ee573d6000803e3d6000fd5b505050506040513d601f19601f820116820180604052508101906138129190614771565b505b60fb5460ff546040516311f9fbc960e21b81526001600160a01b039182166004820152602481018790529116906347e7ef2490604401600060405180830381600087803b15801561386457600080fd5b505af1158015613878573d6000803e3d6000fd5b505060408051888152602081018890529081018490527f83387a3342ff1ebc5e437dc9ae0f98274afda12a11cf547eebec05a3e0b8f8a79250606001905060405180910390a150929d919c50909a5050505050505050505050565b600080600061392960ff60009054906101000a90046001600160a01b03166001600160a01b031663313ce5676040518163ffffffff1660e01b815260040160206040518083038186803b1580156134ac57600080fd5b905061393481612904565b60fb5460ff5460405163f3fef3a360e01b81526001600160a01b039182166004820152602481018b905291169063f3fef3a390604401600060405180830381600087803b15801561398457600080fd5b505af1158015613998573d6000803e3d6000fd5b50506040805160c08101825260ff546001600160a01b03908116825261010054811660208301908152828401878152606084018e81528d84166080860190815262ffffff8e811660a0880190815260fe5498517f68e328020000000000000000000000000000000000000000000000000000000081528851881660048201529551871660248701529351604486015291516064850152518416608484015290511660a48201529194506000935091909116906368e328029060c401602060405180830381600087803b158015613a6d57600080fd5b505af1158015613a81573d6000803e3d6000fd5b505050506040513d601f19601f82011682018060405250810190613aa591906147b0565b60fb54610100546040516311f9fbc960e21b81526001600160a01b0391821660048201526024810184905292935016906347e7ef2490604401600060405180830381600087803b158015613af857600080fd5b505af1158015613b0c573d6000803e3d6000fd5b50505050600080613b2185600160008d613c85565b90925090506000613b32848461475a565b90508015613c3257610100546040516323b872dd60e01b81526001600160a01b038b8116600483015230602483015260448201849052909116906323b872dd90606401602060405180830381600087803b158015613b8f57600080fd5b505af1158015613ba3573d6000803e3d6000fd5b505050506040513d601f19601f82011682018060405250810190613bc79190614771565b5060fb54610100546040516311f9fbc960e21b81526001600160a01b039182166004820152602481018490529116906347e7ef2490604401600060405180830381600087803b158015613c1957600080fd5b505af1158015613c2d573d6000803e3d6000fd5b505050505b60408051848152602081018490529081018290527f83387a3342ff1ebc5e437dc9ae0f98274afda12a11cf547eebec05a3e0b8f8a79060600160405180910390a150909b909a5098505050505050505050565b6040805161010081018252610101546001600160a01b03168152841515602082015283151591810191909152606081018590526000608082018190529081908190819060a08101613cd760b442614877565b81526001600160a01b038781166020808401919091526000604093840181905260fc5484517fb6b1b6c300000000000000000000000000000000000000000000000000000000815286518516600482015292860151151560248401529385015115156044830152606085015160648301526080850151608483015260a085015160a483015260c0850151831660c483015260e085015160e483015293945083929091169063b6b1b6c390610104016040805180830381600087803b158015613d9e57600080fd5b505af1158015613db2573d6000803e3d6000fd5b505050506040513d601f19601f82011682018060405250810190613dd69190614a64565b915091506000613de582614139565b9050806101066000828254613dfa9190614877565b9091555050604080518b15158152602081018d90528a1515818301526001600160a01b038a16606082015290517f9a15d84188925e678e5ac0dacda00aa8a73ebe2346741b3b64fc9919f494bbe49181900360800190a15090999098509650505050505050565b609780546001600160a01b0383811673ffffffffffffffffffffffffffffffffffffffff19831681179093556040519116919082907f8be0079c531659141344cd1fd0a4f28419497f9722a3daafe3b4186f6b6457e090600090a35050565b61010754610105541115611d735761010754610105546040517fdc681c5a000000000000000000000000000000000000000000000000000000008152600481019290925260248201526044016108a3565b600061298f8383670de0b6b3a764000061414d565b600061298f83670de0b6b3a76400008461417b565b6000613f456109b9565b905060008112158061291f575081613f5c82613f9e565b10156117fd576040517f1f04c58a00000000000000000000000000000000000000000000000000000000815260048101829052602481018390526044016108a3565b600080821215613fb957613fb482600019614a88565b610d8f565b5090565b600054610100900460ff1661403a5760405162461bcd60e51b815260206004820152602b60248201527f496e697469616c697a61626c653a20636f6e7472616374206973206e6f74206960448201527f6e697469616c697a696e6700000000000000000000000000000000000000000060648201526084016108a3565b611d7333613e61565b6001600160a01b0381163b6140c05760405162461bcd60e51b815260206004820152602d60248201527f455243313936373a206e657720696d706c656d656e746174696f6e206973206e60448201527f6f74206120636f6e74726163740000000000000000000000000000000000000060648201526084016108a3565b7f360894a13ba1a3210667c828492db98dca3e2076cc3735a920a3ca505d382bbc805473ffffffffffffffffffffffffffffffffffffffff19166001600160a01b0392909216919091179055565b6141178361419a565b6000825111806141245750805b156109b45761413383836141da565b50505050565b6000610d8f61414661217e565b8390613f11565b82820281151584158583048514171661416557600080fd5b6001826001830304018115150290509392505050565b82820281151584158583048514171661419357600080fd5b0492915050565b6141a381614043565b6040516001600160a01b038216907fbc7cd75a20ee27fd9adebab32041f755214dbc6bffa90cc0225b39da2e5c2d3b90600090a250565b60606001600160a01b0383163b6142595760405162461bcd60e51b815260206004820152602660248201527f416464726573733a2064656c65676174652063616c6c20746f206e6f6e2d636f60448201527f6e7472616374000000000000000000000000000000000000000000000000000060648201526084016108a3565b600080846001600160a01b0316846040516142749190614b28565b600060405180830381855af49150503d80600081146142af576040519150601f19603f3d011682016040523d82523d6000602084013e6142b4565b606091505b50915091506142dc8282604051806060016040528060278152602001614b45602791396142e5565b95945050505050565b606083156142f457508161298f565b8251156143045782518084602001fd5b8160405162461bcd60e51b81526004016108a39190614711565b6001600160a01b038116811461129557600080fd5b6000806040838503121561434657600080fd5b8235915060208301356143588161431e565b809150509250929050565b600080600080600080600060e0888a03121561437e57600080fd5b87356143898161431e565b965060208801356143998161431e565b955060408801356143a98161431e565b945060608801356143b98161431e565b935060808801356143c98161431e565b925060a08801356143d98161431e565b915060c08801356143e98161431e565b8091505092959891949750929550565b60006020828403121561440b57600080fd5b813561298f8161431e565b8035600081900b81146124ab57600080fd5b6000806000806080858703121561443e57600080fd5b8435935061444e60208601614416565b9250604085013561445e8161431e565b9150606085013561446e8161431e565b939692955090935050565b62ffffff8116811461129557600080fd5b60008060008060008060c087890312156144a357600080fd5b863595506020870135945060408701356144bc8161431e565b935060608701356144cc81614479565b92506144da60808801614416565b915060a08701356144ea8161431e565b809150509295509295509295565b634e487b7160e01b600052604160045260246000fd5b604051601f8201601f1916810167ffffffffffffffff81118282101715614537576145376144f8565b604052919050565b6000806040838503121561455257600080fd5b823561455d8161431e565b915060208381013567ffffffffffffffff8082111561457b57600080fd5b818601915086601f83011261458f57600080fd5b8135818111156145a1576145a16144f8565b6145b384601f19601f8401160161450e565b915080825287848285010111156145c957600080fd5b80848401858401376000848284010152508093505050509250929050565b6000608082840312156145f957600080fd5b6040516080810181811067ffffffffffffffff8211171561461c5761461c6144f8565b6040528235815260208301356146318161431e565b602082015260408301356146448161431e565b604082015260608301356146578161431e565b60608201529392505050565b60006060828403121561467557600080fd5b6040516060810181811067ffffffffffffffff82111715614698576146986144f8565b6040528235815260208301356146ad8161431e565b602082015260408301356146c08161431e565b60408201529392505050565b6000602082840312156146de57600080fd5b5035919050565b60005b838110156147005781810151838201526020016146e8565b838111156141335750506000910152565b60208152600082518060208401526147308160408501602087016146e5565b601f01601f19169190910160400192915050565b634e487b7160e01b600052601160045260246000fd5b60008282101561476c5761476c614744565b500390565b60006020828403121561478357600080fd5b8151801515811461298f57600080fd5b6000602082840312156147a557600080fd5b815161298f8161431e565b6000602082840312156147c257600080fd5b5051919050565b600080831283600160ff1b018312811516156147e7576147e7614744565b837f7fffffffffffffffffffffffffffffffffffffffffffffffffffffffffffffff01831381161561481b5761481b614744565b50500390565b60006020828403121561483357600080fd5b815161298f81614479565b60006020828403121561485057600080fd5b815160ff8116811461298f57600080fd5b634e487b7160e01b600052603260045260246000fd5b6000821982111561488a5761488a614744565b500190565b6000808212827f7fffffffffffffffffffffffffffffffffffffffffffffffffffffffffffffff038413811516156148c9576148c9614744565b82600160ff1b0384128116156148e1576148e1614744565b50500190565b6000806000606084860312156148fc57600080fd5b8351925060208401519150604084015190509250925092565b600181815b8085111561495057816000190482111561493657614936614744565b8085161561494357918102915b93841c939080029061491a565b509250929050565b60008261496757506001610d8f565b8161497457506000610d8f565b816001811461498a5760028114614994576149b0565b6001915050610d8f565b60ff8411156149a5576149a5614744565b50506001821b610d8f565b5060208310610133831016604e8410600b84101617156149d3575081810a610d8f565b6149dd8383614915565b80600019048211156149f1576149f1614744565b029392505050565b600061298f60ff841683614958565b6000816000190483118215151615614a2257614a22614744565b500290565b600082614a4457634e487b7160e01b600052601260045260246000fd5b500490565b6000600019821415614a5d57614a5d614744565b5060010190565b60008060408385031215614a7757600080fd5b505080516020909101519092909150565b60007f7fffffffffffffffffffffffffffffffffffffffffffffffffffffffffffffff600084136000841385830485118282161615614ac957614ac9614744565b600160ff1b6000871286820588128184161615614ae857614ae8614744565b60008712925087820587128484161615614b0457614b04614744565b87850587128184161615614b1a57614b1a614744565b505050929093029392505050565b60008251614b3a8184602087016146e5565b919091019291505056fe416464726573733a206c6f772d6c6576656c2064656c65676174652063616c6c206661696c6564a2646970667358221220d54cdd4d077f32ee937db1bbd731b0d0ade277b46fcb6dacb4acc20b97f5243f64736f6c63430008090033",
  "linkReferences": {},
  "deployedLinkReferences": {}
}