{
  "_format": "hh-sol-artifact-1",
  "contractName": "PerpDepository",
  "sourceName": "contracts/integrations/perp/PerpDepository.sol",
  "abi": [
    {
      "inputs": [
        {
          "internalType": "address",
          "name": "addr",
          "type": "address"
        }
      ],
      "name": "AddressNotContract",
      "type": "error"
    },
    {
      "inputs": [],
      "name": "ErrZeroAddress",
      "type": "error"
    },
    {
      "inputs": [
        {
          "internalType": "int256",
          "name": "allowance",
          "type": "int256"
        },
        {
          "internalType": "uint256",
          "name": "amount",
          "type": "uint256"
        }
      ],
      "name": "InsufficientPnl",
      "type": "error"
    },
    {
      "inputs": [
        {
          "internalType": "int256",
          "name": "balance",
          "type": "int256"
        }
      ],
      "name": "InvalidQuoteTokenBalance",
      "type": "error"
    },
    {
      "inputs": [
        {
          "internalType": "int8",
          "name": "polarity",
          "type": "int8"
        }
      ],
      "name": "InvalidRebalance",
      "type": "error"
    },
    {
      "inputs": [
        {
          "internalType": "uint256",
          "name": "allowance",
          "type": "uint256"
        },
        {
          "internalType": "uint256",
          "name": "amount",
          "type": "uint256"
        }
      ],
      "name": "NotApproved",
      "type": "error"
    },
    {
      "inputs": [
        {
          "internalType": "address",
          "name": "caller",
          "type": "address"
        }
      ],
      "name": "NotController",
      "type": "error"
    },
    {
      "inputs": [
        {
          "internalType": "uint256",
          "name": "requestedAmount",
          "type": "uint256"
        },
        {
          "internalType": "int256",
          "name": "unrealizedPnL",
          "type": "int256"
        },
        {
          "internalType": "int8",
          "name": "polarity",
          "type": "int8"
        }
      ],
      "name": "RebalanceUnavailable",
      "type": "error"
    },
    {
      "inputs": [
        {
          "internalType": "uint256",
          "name": "softcap",
          "type": "uint256"
        },
        {
          "internalType": "uint256",
          "name": "newBasePosition",
          "type": "uint256"
        }
      ],
      "name": "RedeemableSoftCapHit",
      "type": "error"
    },
    {
      "inputs": [],
      "name": "ZeroAmount",
      "type": "error"
    },
    {
      "anonymous": false,
      "inputs": [
        {
          "indexed": false,
          "internalType": "address",
          "name": "previousAdmin",
          "type": "address"
        },
        {
          "indexed": false,
          "internalType": "address",
          "name": "newAdmin",
          "type": "address"
        }
      ],
      "name": "AdminChanged",
      "type": "event"
    },
    {
      "anonymous": false,
      "inputs": [
        {
          "indexed": true,
          "internalType": "address",
          "name": "beacon",
          "type": "address"
        }
      ],
      "name": "BeaconUpgraded",
      "type": "event"
    },
    {
      "anonymous": false,
      "inputs": [
        {
          "indexed": false,
          "internalType": "uint8",
          "name": "version",
          "type": "uint8"
        }
      ],
      "name": "Initialized",
      "type": "event"
    },
    {
      "anonymous": false,
      "inputs": [
        {
          "indexed": true,
          "internalType": "address",
          "name": "caller",
          "type": "address"
        },
        {
          "indexed": true,
          "internalType": "address",
          "name": "from",
          "type": "address"
        },
        {
          "indexed": false,
          "internalType": "uint256",
          "name": "amount",
          "type": "uint256"
        }
      ],
      "name": "InsuranceDeposited",
      "type": "event"
    },
    {
      "anonymous": false,
      "inputs": [
        {
          "indexed": true,
          "internalType": "address",
          "name": "caller",
          "type": "address"
        },
        {
          "indexed": true,
          "internalType": "address",
          "name": "to",
          "type": "address"
        },
        {
          "indexed": false,
          "internalType": "uint256",
          "name": "amount",
          "type": "uint256"
        }
      ],
      "name": "InsuranceWithdrawn",
      "type": "event"
    },
    {
      "anonymous": false,
      "inputs": [
        {
          "indexed": true,
          "internalType": "address",
          "name": "previousOwner",
          "type": "address"
        },
        {
          "indexed": true,
          "internalType": "address",
          "name": "newOwner",
          "type": "address"
        }
      ],
      "name": "OwnershipTransferred",
      "type": "event"
    },
    {
      "anonymous": false,
      "inputs": [
        {
          "indexed": false,
          "internalType": "bool",
          "name": "isShort",
          "type": "bool"
        },
        {
          "indexed": false,
          "internalType": "uint256",
          "name": "amount",
          "type": "uint256"
        },
        {
          "indexed": false,
          "internalType": "bool",
          "name": "amountIsInput",
          "type": "bool"
        },
        {
          "indexed": false,
          "internalType": "uint160",
          "name": "sqrtPriceLimitX96",
          "type": "uint160"
        }
      ],
      "name": "PositionOpened",
      "type": "event"
    },
    {
      "anonymous": false,
      "inputs": [
        {
          "indexed": false,
          "internalType": "uint256",
          "name": "baseAmount",
          "type": "uint256"
        },
        {
          "indexed": false,
          "internalType": "uint256",
          "name": "quoteAmount",
          "type": "uint256"
        },
        {
          "indexed": false,
          "internalType": "int256",
          "name": "shortfall",
          "type": "int256"
        }
      ],
      "name": "Rebalanced",
      "type": "event"
    },
    {
      "anonymous": false,
      "inputs": [
        {
          "indexed": true,
          "internalType": "address",
          "name": "caller",
          "type": "address"
        },
        {
          "indexed": false,
          "internalType": "uint256",
          "name": "newSoftCap",
          "type": "uint256"
        }
      ],
      "name": "RedeemableSoftCapUpdated",
      "type": "event"
    },
    {
      "anonymous": false,
      "inputs": [
        {
          "indexed": true,
          "internalType": "address",
          "name": "implementation",
          "type": "address"
        }
      ],
      "name": "Upgraded",
      "type": "event"
    },
    {
      "inputs": [],
      "name": "HUNDRED_PERCENT",
      "outputs": [
        {
          "internalType": "uint256",
          "name": "",
          "type": "uint256"
        }
      ],
      "stateMutability": "view",
      "type": "function"
    },
    {
      "inputs": [],
      "name": "VERSION",
      "outputs": [
        {
          "internalType": "string",
          "name": "",
          "type": "string"
        }
      ],
      "stateMutability": "pure",
      "type": "function"
    },
    {
      "inputs": [],
      "name": "baseToken",
      "outputs": [
        {
          "internalType": "address",
          "name": "",
          "type": "address"
        }
      ],
      "stateMutability": "view",
      "type": "function"
    },
    {
      "inputs": [],
      "name": "clearingHouse",
      "outputs": [
        {
          "internalType": "contract IClearingHouse",
          "name": "",
          "type": "address"
        }
      ],
      "stateMutability": "view",
      "type": "function"
    },
    {
      "inputs": [],
      "name": "collateralDeposited",
      "outputs": [
        {
          "internalType": "uint256",
          "name": "",
          "type": "uint256"
        }
      ],
      "stateMutability": "view",
      "type": "function"
    },
    {
      "inputs": [],
      "name": "controller",
      "outputs": [
        {
          "internalType": "address",
          "name": "",
          "type": "address"
        }
      ],
      "stateMutability": "view",
      "type": "function"
    },
    {
      "inputs": [
        {
          "internalType": "uint256",
          "name": "amount",
          "type": "uint256"
        }
      ],
      "name": "depositCollateral",
      "outputs": [],
      "stateMutability": "nonpayable",
      "type": "function"
    },
    {
      "inputs": [
        {
          "internalType": "uint256",
          "name": "amount",
          "type": "uint256"
        },
        {
          "internalType": "address",
          "name": "from",
          "type": "address"
        }
      ],
      "name": "depositInsurance",
      "outputs": [],
      "stateMutability": "nonpayable",
      "type": "function"
    },
    {
      "inputs": [
        {
          "internalType": "address",
          "name": "account",
          "type": "address"
        }
      ],
      "name": "getAccountValue",
      "outputs": [
        {
          "internalType": "int256",
          "name": "",
          "type": "int256"
        }
      ],
      "stateMutability": "view",
      "type": "function"
    },
    {
      "inputs": [],
      "name": "getCurrentState",
      "outputs": [
        {
          "components": [
            {
              "internalType": "uint256",
              "name": "collateralDeposited",
              "type": "uint256"
            },
            {
              "internalType": "uint256",
              "name": "insuranceDeposited",
              "type": "uint256"
            },
            {
              "internalType": "uint256",
              "name": "redeemableUnderManagement",
              "type": "uint256"
            },
            {
              "internalType": "uint256",
              "name": "totalFeesPaid",
              "type": "uint256"
            },
            {
              "internalType": "uint256",
              "name": "redeemableSoftCap",
              "type": "uint256"
            }
          ],
          "internalType": "struct DepositoryState",
          "name": "",
          "type": "tuple"
        }
      ],
      "stateMutability": "view",
      "type": "function"
    },
    {
      "inputs": [
        {
          "internalType": "address",
          "name": "account",
          "type": "address"
        }
      ],
      "name": "getDebtValue",
      "outputs": [
        {
          "internalType": "uint256",
          "name": "",
          "type": "uint256"
        }
      ],
      "stateMutability": "view",
      "type": "function"
    },
    {
      "inputs": [],
      "name": "getExchangeFee",
      "outputs": [
        {
          "internalType": "uint256",
          "name": "",
          "type": "uint256"
        }
      ],
      "stateMutability": "view",
      "type": "function"
    },
    {
      "inputs": [],
      "name": "getExchangeFeeWad",
      "outputs": [
        {
          "internalType": "uint256",
          "name": "",
          "type": "uint256"
        }
      ],
      "stateMutability": "view",
      "type": "function"
    },
    {
      "inputs": [],
      "name": "getFreeCollateral",
      "outputs": [
        {
          "internalType": "uint256",
          "name": "",
          "type": "uint256"
        }
      ],
      "stateMutability": "view",
      "type": "function"
    },
    {
      "inputs": [
        {
          "internalType": "uint32",
          "name": "twapInterval",
          "type": "uint32"
        }
      ],
      "name": "getMarkPriceTwap",
      "outputs": [
        {
          "internalType": "uint256",
          "name": "",
          "type": "uint256"
        }
      ],
      "stateMutability": "view",
      "type": "function"
    },
    {
      "inputs": [],
      "name": "getPositionValue",
      "outputs": [
        {
          "internalType": "uint256",
          "name": "",
          "type": "uint256"
        }
      ],
      "stateMutability": "view",
      "type": "function"
    },
    {
      "inputs": [],
      "name": "getUnrealizedPnl",
      "outputs": [
        {
          "internalType": "int256",
          "name": "",
          "type": "int256"
        }
      ],
      "stateMutability": "view",
      "type": "function"
    },
    {
      "inputs": [
        {
          "internalType": "address",
          "name": "_vault",
          "type": "address"
        },
        {
          "internalType": "address",
          "name": "_clearingHouse",
          "type": "address"
        },
        {
          "internalType": "address",
          "name": "_marketRegistry",
          "type": "address"
        },
        {
          "internalType": "address",
          "name": "_futuresMarket",
          "type": "address"
        },
        {
          "internalType": "address",
          "name": "_baseToken",
          "type": "address"
        },
        {
          "internalType": "address",
          "name": "_quoteToken",
          "type": "address"
        },
        {
          "internalType": "address",
          "name": "_controller",
          "type": "address"
        }
      ],
      "name": "initialize",
      "outputs": [],
      "stateMutability": "nonpayable",
      "type": "function"
    },
    {
      "inputs": [],
      "name": "insuranceDeposited",
      "outputs": [
        {
          "internalType": "uint256",
          "name": "",
          "type": "uint256"
        }
      ],
      "stateMutability": "view",
      "type": "function"
    },
    {
      "inputs": [],
      "name": "market",
      "outputs": [
        {
          "internalType": "address",
          "name": "",
          "type": "address"
        }
      ],
      "stateMutability": "view",
      "type": "function"
    },
    {
      "inputs": [],
      "name": "marketRegistry",
      "outputs": [
        {
          "internalType": "contract IMarketRegistry",
          "name": "",
          "type": "address"
        }
      ],
      "stateMutability": "view",
      "type": "function"
    },
    {
      "inputs": [
        {
          "components": [
            {
              "internalType": "uint256",
              "name": "amountToRedeem",
              "type": "uint256"
            },
            {
              "internalType": "address",
              "name": "baseToken",
              "type": "address"
            },
            {
              "internalType": "uint160",
              "name": "sqrtPriceLimitX96",
              "type": "uint160"
            },
            {
              "internalType": "address",
              "name": "user",
              "type": "address"
            }
          ],
          "internalType": "struct LongPositionParams",
          "name": "params",
          "type": "tuple"
        }
      ],
      "name": "openLong",
      "outputs": [
        {
          "internalType": "uint256",
          "name": "",
          "type": "uint256"
        },
        {
          "internalType": "uint256",
          "name": "",
          "type": "uint256"
        }
      ],
      "stateMutability": "nonpayable",
      "type": "function"
    },
    {
      "inputs": [
        {
          "components": [
            {
              "internalType": "uint256",
              "name": "amount",
              "type": "uint256"
            },
            {
              "internalType": "address",
              "name": "baseToken",
              "type": "address"
            },
            {
              "internalType": "uint160",
              "name": "sqrtPriceLimitX96",
              "type": "uint160"
            }
          ],
          "internalType": "struct ShortPositionParams",
          "name": "params",
          "type": "tuple"
        }
      ],
      "name": "openShort",
      "outputs": [
        {
          "internalType": "uint256",
          "name": "",
          "type": "uint256"
        },
        {
          "internalType": "uint256",
          "name": "",
          "type": "uint256"
        }
      ],
      "stateMutability": "nonpayable",
      "type": "function"
    },
    {
      "inputs": [],
      "name": "owner",
      "outputs": [
        {
          "internalType": "address",
          "name": "",
          "type": "address"
        }
      ],
      "stateMutability": "view",
      "type": "function"
    },
    {
      "inputs": [
        {
          "internalType": "uint256",
          "name": "quoteAmount",
          "type": "uint256"
        }
      ],
      "name": "processQuoteMint",
      "outputs": [
        {
          "internalType": "uint256",
          "name": "",
          "type": "uint256"
        }
      ],
      "stateMutability": "nonpayable",
      "type": "function"
    },
    {
      "inputs": [
        {
          "internalType": "uint256",
          "name": "redeemableAmount",
          "type": "uint256"
        },
        {
          "internalType": "address",
          "name": "account",
          "type": "address"
        }
      ],
      "name": "processQuoteRedeem",
      "outputs": [
        {
          "internalType": "uint256",
          "name": "",
          "type": "uint256"
        }
      ],
      "stateMutability": "nonpayable",
      "type": "function"
    },
    {
      "inputs": [],
      "name": "proxiableUUID",
      "outputs": [
        {
          "internalType": "bytes32",
          "name": "",
          "type": "bytes32"
        }
      ],
      "stateMutability": "view",
      "type": "function"
    },
    {
      "inputs": [],
      "name": "quoteMinted",
      "outputs": [
        {
          "internalType": "int256",
          "name": "",
          "type": "int256"
        }
      ],
      "stateMutability": "view",
      "type": "function"
    },
    {
      "inputs": [],
      "name": "quoteToken",
      "outputs": [
        {
          "internalType": "address",
          "name": "",
          "type": "address"
        }
      ],
      "stateMutability": "view",
      "type": "function"
    },
    {
      "inputs": [
        {
          "internalType": "uint256",
          "name": "amount",
          "type": "uint256"
        },
        {
          "internalType": "uint256",
          "name": "amountOutMinimum",
          "type": "uint256"
        },
        {
          "internalType": "uint160",
          "name": "sqrtPriceLimitX96",
          "type": "uint160"
        },
        {
          "internalType": "uint24",
          "name": "swapPoolFee",
          "type": "uint24"
        },
        {
          "internalType": "int8",
          "name": "polarity",
          "type": "int8"
        },
        {
          "internalType": "address",
          "name": "account",
          "type": "address"
        }
      ],
      "name": "rebalance",
      "outputs": [
        {
          "internalType": "uint256",
          "name": "",
          "type": "uint256"
        },
        {
          "internalType": "uint256",
          "name": "",
          "type": "uint256"
        }
      ],
      "stateMutability": "nonpayable",
      "type": "function"
    },
    {
      "inputs": [
        {
          "internalType": "uint256",
          "name": "amount",
          "type": "uint256"
        },
        {
          "internalType": "int8",
          "name": "polarity",
          "type": "int8"
        },
        {
          "internalType": "uint160",
          "name": "sqrtPriceLimitX96",
          "type": "uint160"
        },
        {
          "internalType": "address",
          "name": "account",
          "type": "address"
        }
      ],
      "name": "rebalanceLite",
      "outputs": [
        {
          "internalType": "uint256",
          "name": "",
          "type": "uint256"
        },
        {
          "internalType": "uint256",
          "name": "",
          "type": "uint256"
        }
      ],
      "stateMutability": "nonpayable",
      "type": "function"
    },
    {
      "inputs": [],
      "name": "redeemableSoftCap",
      "outputs": [
        {
          "internalType": "uint256",
          "name": "",
          "type": "uint256"
        }
      ],
      "stateMutability": "view",
      "type": "function"
    },
    {
      "inputs": [],
      "name": "redeemableUnderManagement",
      "outputs": [
        {
          "internalType": "uint256",
          "name": "",
          "type": "uint256"
        }
      ],
      "stateMutability": "view",
      "type": "function"
    },
    {
      "inputs": [],
      "name": "renounceOwnership",
      "outputs": [],
      "stateMutability": "nonpayable",
      "type": "function"
    },
    {
      "inputs": [
        {
          "internalType": "address",
          "name": "_controller",
          "type": "address"
        }
      ],
      "name": "setController",
      "outputs": [],
      "stateMutability": "nonpayable",
      "type": "function"
    },
    {
      "inputs": [
        {
          "internalType": "uint256",
          "name": "softCap",
          "type": "uint256"
        }
      ],
      "name": "setRedeemableSoftCap",
      "outputs": [],
      "stateMutability": "nonpayable",
      "type": "function"
    },
    {
      "inputs": [
        {
          "internalType": "address",
          "name": "_swapper",
          "type": "address"
        }
      ],
      "name": "setSpotSwapper",
      "outputs": [],
      "stateMutability": "nonpayable",
      "type": "function"
    },
    {
      "inputs": [],
      "name": "spotSwapper",
      "outputs": [
        {
          "internalType": "contract ISwapper",
          "name": "",
          "type": "address"
        }
      ],
      "stateMutability": "view",
      "type": "function"
    },
    {
      "inputs": [],
      "name": "totalFeesPaid",
      "outputs": [
        {
          "internalType": "uint256",
          "name": "",
          "type": "uint256"
        }
      ],
      "stateMutability": "view",
      "type": "function"
    },
    {
      "inputs": [
        {
          "internalType": "address",
          "name": "newOwner",
          "type": "address"
        }
      ],
      "name": "transferOwnership",
      "outputs": [],
      "stateMutability": "nonpayable",
      "type": "function"
    },
    {
      "inputs": [
        {
          "internalType": "address",
          "name": "newImplementation",
          "type": "address"
        }
      ],
      "name": "upgradeTo",
      "outputs": [],
      "stateMutability": "nonpayable",
      "type": "function"
    },
    {
      "inputs": [
        {
          "internalType": "address",
          "name": "newImplementation",
          "type": "address"
        },
        {
          "internalType": "bytes",
          "name": "data",
          "type": "bytes"
        }
      ],
      "name": "upgradeToAndCall",
      "outputs": [],
      "stateMutability": "payable",
      "type": "function"
    },
    {
      "inputs": [],
      "name": "vault",
      "outputs": [
        {
          "internalType": "contract IVault",
          "name": "",
          "type": "address"
        }
      ],
      "stateMutability": "view",
      "type": "function"
    },
    {
      "inputs": [
        {
          "internalType": "uint256",
          "name": "amount",
          "type": "uint256"
        },
        {
          "internalType": "address",
          "name": "to",
          "type": "address"
        }
      ],
      "name": "withdrawCollateral",
      "outputs": [],
      "stateMutability": "nonpayable",
      "type": "function"
    },
    {
      "inputs": [
        {
          "internalType": "uint256",
          "name": "amount",
          "type": "uint256"
        },
        {
          "internalType": "address",
          "name": "to",
          "type": "address"
        }
      ],
      "name": "withdrawInsurance",
      "outputs": [],
      "stateMutability": "nonpayable",
      "type": "function"
    }
  ],
  "bytecode": "0x60a06040523060805234801561001457600080fd5b50608051614fb861004c600039600081816110a60152818161113c015281816115af015281816116450152611a810152614fb86000f3fe6080604052600436106102f25760003560e01c80636f1874171161018f578063bedfc05d116100e1578063ecb96fe61161008a578063f77c479111610064578063f77c479114610817578063fbfa77cf14610838578063ffa1ad741461085857600080fd5b8063ecb96fe6146107c2578063f084c24b146107e2578063f2fde38b146107f757600080fd5b8063e4bdc4d2116100bb578063e4bdc4d21461076b578063e9fd58621461078b578063ebf5a908146107a257600080fd5b8063bedfc05d14610715578063c55dae631461072a578063de2b1ff21461074b57600080fd5b80638da5cb5b11610143578063bad4a01f1161011d578063bad4a01f146106c7578063bdf7f54e146106e7578063be3519a2146106fe57600080fd5b80638da5cb5b1461067457806392eefe9b14610692578063b44b3a8f146106b257600080fd5b806379604f0c1161017457806379604f0c1461061357806380f556051461063357806389b211af1461065457600080fd5b80636f187417146105e9578063715018a6146105fe57600080fd5b806339af3a81116102485780634f3de3a9116101fc5780636311d06a116101d65780636311d06a1461059b57806365c4f126146105b25780636ed93dd0146105d257600080fd5b80634f3de3a91461054657806352d1902d146105665780635ae809511461057b57600080fd5b8063487b00c21161022d578063487b00c2146104de5780634a2accc2146105135780634f1ef2861461053357600080fd5b806339af3a81146104a75780633c94de54146104c757600080fd5b806323ae7152116102aa5780633659cfe6116102845780633659cfe61461041b578063378aa7011461043b57806338086bd31461049257600080fd5b806323ae7152146103c457806334e0e38b146103db57806335876476146103fb57600080fd5b80630f324233116102db5780630f32423314610356578063190e03ec14610384578063217a4b70146103a457600080fd5b80630af504cc146102f75780630af9680014610319575b600080fd5b34801561030357600080fd5b50610317610312366004614724565b6108a4565b005b34801561032557600080fd5b5060fc54610339906001600160a01b031681565b6040516001600160a01b0390911681526020015b60405180910390f35b34801561036257600080fd5b50610376610371366004614754565b6109e4565b60405190815260200161034d565b34801561039057600080fd5b5060fe54610339906001600160a01b031681565b3480156103b057600080fd5b5060ff54610339906001600160a01b031681565b3480156103d057600080fd5b506103766101045481565b3480156103e757600080fd5b506103766103f6366004614724565b610b39565b34801561040757600080fd5b5061031761041636600461477a565b610d36565b34801561042757600080fd5b50610317610436366004614810565b61109b565b34801561044757600080fd5b50610450611239565b60405161034d9190600060a082019050825182526020830151602083015260408301516040830152606083015160608301526080830151608083015292915050565b34801561049e57600080fd5b506103766112a6565b3480156104b357600080fd5b506103176104c2366004614810565b61136f565b3480156104d357600080fd5b506103766101075481565b3480156104ea57600080fd5b506104fe6104f936600461483f565b6113e6565b6040805192835260208301919091520161034d565b34801561051f57600080fd5b506104fe61052e3660046148a1565b6114c2565b610317610541366004614956565b6115a4565b34801561055257600080fd5b50610317610561366004614724565b611733565b34801561057257600080fd5b50610376611a74565b34801561058757600080fd5b50610376610596366004614810565b611b39565b3480156105a757600080fd5b506103766101035481565b3480156105be57600080fd5b506104fe6105cd3660046149fe565b611bd0565b3480156105de57600080fd5b50610376620f424081565b3480156105f557600080fd5b50610376611c49565b34801561060a57600080fd5b50610317611ce3565b34801561061f57600080fd5b506104fe61062e366004614a7a565b611cf7565b34801561063f57600080fd5b5061010154610339906001600160a01b031681565b34801561066057600080fd5b5061031761066f366004614724565b611d7e565b34801561068057600080fd5b506097546001600160a01b0316610339565b34801561069e57600080fd5b506103176106ad366004614810565b611f4c565b3480156106be57600080fd5b50610376611fc4565b3480156106d357600080fd5b506103176106e2366004614ae3565b612113565b3480156106f357600080fd5b506103766101085481565b34801561070a57600080fd5b506103766101055481565b34801561072157600080fd5b5061037661224f565b34801561073657600080fd5b5061010054610339906001600160a01b031681565b34801561075757600080fd5b50610317610766366004614ae3565b6122f7565b34801561077757600080fd5b50610376610786366004614ae3565b61235b565b34801561079757600080fd5b506103766101065481565b3480156107ae57600080fd5b506103766107bd366004614810565b612560565b3480156107ce57600080fd5b5060fd54610339906001600160a01b031681565b3480156107ee57600080fd5b50610376612927565b34801561080357600080fd5b50610317610812366004614810565b61293f565b34801561082357600080fd5b5061010254610339906001600160a01b031681565b34801561084457600080fd5b5060fb54610339906001600160a01b031681565b34801561086457600080fd5b50604080518082018252600581527f312e302e300000000000000000000000000000000000000000000000000000006020820152905161034d9190614b28565b610102546001600160a01b031633146108d757604051633338cdbd60e11b81523360048201526024015b60405180910390fd5b8161010360008282546108ea9190614b71565b909155505060fb546101005460405163f3fef3a360e01b81526001600160a01b0391821660048201526024810185905291169063f3fef3a390604401600060405180830381600087803b15801561094057600080fd5b505af1158015610954573d6000803e3d6000fd5b50506101005460405163a9059cbb60e01b81526001600160a01b03858116600483015260248201879052909116925063a9059cbb9150604401602060405180830381600087803b1580156109a757600080fd5b505af11580156109bb573d6000803e3d6000fd5b505050506040513d601f19601f820116820180604052508101906109df9190614b88565b505050565b60008060fc60009054906101000a90046001600160a01b03166001600160a01b031663f807cd226040518163ffffffff1660e01b815260040160206040518083038186803b158015610a3557600080fd5b505afa158015610a49573d6000803e3d6000fd5b505050506040513d601f19601f82011682018060405250810190610a6d9190614baa565b610101546040517f99e4a7710000000000000000000000000000000000000000000000000000000081526001600160a01b03918216600482015263ffffffff86166024820152919250600091610b3191610b2c91908516906399e4a7719060440160206040518083038186803b158015610ae657600080fd5b505afa158015610afa573d6000803e3d6000fd5b505050506040513d601f19601f82011682018060405250810190610b1e9190614baa565b6001600160a01b03166129cc565b6129ef565b949350505050565b610102546000906001600160a01b03163314610b6a57604051633338cdbd60e11b81523360048201526024016108ce565b610b7383612a11565b826101086000828254610b869190614bc7565b92505081905550826101056000828254610ba09190614b71565b925050819055506000610c3c601260ff60009054906101000a90046001600160a01b03166001600160a01b031663313ce5676040518163ffffffff1660e01b815260040160206040518083038186803b158015610bfc57600080fd5b505afa158015610c10573d6000803e3d6000fd5b505050506040513d601f19601f82011682018060405250810190610c349190614c1f565b869190612a6d565b60fb5460ff5460405163f3fef3a360e01b81526001600160a01b03918216600482015260248101849052929350169063f3fef3a390604401600060405180830381600087803b158015610c8e57600080fd5b505af1158015610ca2573d6000803e3d6000fd5b505060ff5460405163a9059cbb60e01b81526001600160a01b03878116600483015260248201869052909116925063a9059cbb9150604401602060405180830381600087803b158015610cf457600080fd5b505af1158015610d08573d6000803e3d6000fd5b505050506040513d601f19601f82011682018060405250810190610d2c9190614b88565b5090505b92915050565b600054610100900460ff1615808015610d565750600054600160ff909116105b80610d705750303b158015610d70575060005460ff166001145b610de25760405162461bcd60e51b815260206004820152602e60248201527f496e697469616c697a61626c653a20636f6e747261637420697320616c72656160448201527f647920696e697469616c697a656400000000000000000000000000000000000060648201526084016108ce565b600080547fffffffffffffffffffffffffffffffffffffffffffffffffffffffffffffff001660011790558015610e23576000805461ff0019166101001790555b610e2b612aa3565b610e33612b28565b60408051600780825261010082019092526000916020820160e0803683370190505090508881600081518110610e6b57610e6b614c42565b60200260200101906001600160a01b031690816001600160a01b0316815250508781600181518110610e9f57610e9f614c42565b60200260200101906001600160a01b031690816001600160a01b0316815250508681600281518110610ed357610ed3614c42565b60200260200101906001600160a01b031690816001600160a01b0316815250508581600381518110610f0757610f07614c42565b60200260200101906001600160a01b031690816001600160a01b0316815250508481600481518110610f3b57610f3b614c42565b60200260200101906001600160a01b031690816001600160a01b0316815250508381600581518110610f6f57610f6f614c42565b60200260200101906001600160a01b031690816001600160a01b0316815250508281600681518110610fa357610fa3614c42565b60200260200101906001600160a01b031690816001600160a01b031681525050610fcc81612ba5565b5060fc805473ffffffffffffffffffffffffffffffffffffffff199081166001600160a01b038a81169190911790925560fb805482168b841617905560fd805482168984161790556101028054821685841617905560ff805482168684161790556101008054821687841617905561010180549091169187169190911790558015611091576000805461ff0019169055604051600181527f7f26b83ff96e1f2b6a682f133852f6798a09c465da95921460cefb38474024989060200160405180910390a15b5050505050505050565b306001600160a01b037f000000000000000000000000000000000000000000000000000000000000000016141561113a5760405162461bcd60e51b815260206004820152602c60248201527f46756e6374696f6e206d7573742062652063616c6c6564207468726f7567682060448201527f64656c656761746563616c6c000000000000000000000000000000000000000060648201526084016108ce565b7f00000000000000000000000000000000000000000000000000000000000000006001600160a01b03166111957f360894a13ba1a3210667c828492db98dca3e2076cc3735a920a3ca505d382bbc546001600160a01b031690565b6001600160a01b0316146112115760405162461bcd60e51b815260206004820152602c60248201527f46756e6374696f6e206d7573742062652063616c6c6564207468726f7567682060448201527f6163746976652070726f7879000000000000000000000000000000000000000060648201526084016108ce565b61121a81612c58565b6040805160008082526020820190925261123691839190612c60565b50565b61126b6040518060a0016040528060008152602001600081526020016000815260200160008152602001600081525090565b6040518060a0016040528061010354815260200161010454815260200161010554815260200161010654815260200161010754815250905090565b60fd54610101546040517fedd0b5cb0000000000000000000000000000000000000000000000000000000081526001600160a01b0391821660048201526000928392169063edd0b5cb9060240160206040518083038186803b15801561130b57600080fd5b505afa15801561131f573d6000803e3d6000fd5b505050506040513d601f19601f820116820180604052508101906113439190614c58565b62ffffff169050611369620f424061136383670de0b6b3a7640000612e0f565b90612e24565b91505090565b611377612e39565b6001600160a01b0381166113b7576040517fecc6fdf000000000000000000000000000000000000000000000000000000000815260040160405180910390fd5b60fe805473ffffffffffffffffffffffffffffffffffffffff19166001600160a01b0392909216919091179055565b600080600260c954141561143c5760405162461bcd60e51b815260206004820152601f60248201527f5265656e7472616e637947756172643a207265656e7472616e742063616c6c0060448201526064016108ce565b600260c955600019600086900b14156114635761145a868585612e93565b915091506114b2565b8460000b6001141561147a5761145a86858561320e565b6040517fe2b4c0a5000000000000000000000000000000000000000000000000000000008152600086900b60048201526024016108ce565b600160c955909590945092505050565b600080600260c95414156115185760405162461bcd60e51b815260206004820152601f60248201527f5265656e7472616e637947756172643a207265656e7472616e742063616c6c0060448201526064016108ce565b600260c955600019600085900b141561154157611538888888888761358d565b91509150611592565b8360000b6001141561155a576115388888888887613ad7565b6040517fe2b4c0a5000000000000000000000000000000000000000000000000000000008152600085900b60048201526024016108ce565b600160c9559097909650945050505050565b306001600160a01b037f00000000000000000000000000000000000000000000000000000000000000001614156116435760405162461bcd60e51b815260206004820152602c60248201527f46756e6374696f6e206d7573742062652063616c6c6564207468726f7567682060448201527f64656c656761746563616c6c000000000000000000000000000000000000000060648201526084016108ce565b7f00000000000000000000000000000000000000000000000000000000000000006001600160a01b031661169e7f360894a13ba1a3210667c828492db98dca3e2076cc3735a920a3ca505d382bbc546001600160a01b031690565b6001600160a01b03161461171a5760405162461bcd60e51b815260206004820152602c60248201527f46756e6374696f6e206d7573742062652063616c6c6564207468726f7567682060448201527f6163746976652070726f7879000000000000000000000000000000000000000060648201526084016108ce565b61172382612c58565b61172f82826001612c60565b5050565b600260c95414156117865760405162461bcd60e51b815260206004820152601f60248201527f5265656e7472616e637947756172643a207265656e7472616e742063616c6c0060448201526064016108ce565b600260c955611793612e39565b816117b157604051631f2a200560e01b815260040160405180910390fd5b60ff546040517fdd62ed3e0000000000000000000000000000000000000000000000000000000081526001600160a01b038381166004830152306024830152600092169063dd62ed3e9060440160206040518083038186803b15801561181657600080fd5b505afa15801561182a573d6000803e3d6000fd5b505050506040513d601f19601f8201168201806040525081019061184e9190614c75565b905082811015611894576040517f9912131900000000000000000000000000000000000000000000000000000000815260048101829052602481018490526044016108ce565b8261010460008282546118a79190614c8e565b909155505060ff546040516323b872dd60e01b81526001600160a01b03848116600483015230602483015260448201869052909116906323b872dd90606401602060405180830381600087803b15801561190057600080fd5b505af1158015611914573d6000803e3d6000fd5b505050506040513d601f19601f820116820180604052508101906119389190614b88565b5060ff5460fb5460405163095ea7b360e01b81526001600160a01b0391821660048201526024810186905291169063095ea7b390604401602060405180830381600087803b15801561198957600080fd5b505af115801561199d573d6000803e3d6000fd5b505050506040513d601f19601f820116820180604052508101906119c19190614b88565b5060fb5460ff546040516311f9fbc960e21b81526001600160a01b039182166004820152602481018690529116906347e7ef2490604401600060405180830381600087803b158015611a1257600080fd5b505af1158015611a26573d6000803e3d6000fd5b50506040518581526001600160a01b03851692503391507f27a53222ef7efd93a8a1530cf4a3d41220d5f26def9b04b88cdd34fb89f433f69060200160405180910390a35050600160c95550565b6000306001600160a01b037f00000000000000000000000000000000000000000000000000000000000000001614611b145760405162461bcd60e51b815260206004820152603860248201527f555550535570677261646561626c653a206d757374206e6f742062652063616c60448201527f6c6564207468726f7567682064656c656761746563616c6c000000000000000060648201526084016108ce565b507f360894a13ba1a3210667c828492db98dca3e2076cc3735a920a3ca505d382bbc90565b60fc546040517f5ae809510000000000000000000000000000000000000000000000000000000081526001600160a01b0383811660048301526000921690635ae809519060240160206040518083038186803b158015611b9857600080fd5b505afa158015611bac573d6000803e3d6000fd5b505050506040513d601f19601f82011682018060405250810190610d309190614c75565b6101025460009081906001600160a01b03163314611c0357604051633338cdbd60e11b81523360048201526024016108ce565b60008060019050600080611c21876000015185858a60400151613f57565b91509150806101056000828254611c389190614b71565b909155509195509350505050915091565b60fb546040517fc39994440000000000000000000000000000000000000000000000000000000081523060048201526000916001600160a01b03169063c39994449060240160206040518083038186803b158015611ca657600080fd5b505afa158015611cba573d6000803e3d6000fd5b505050506040513d601f19601f82011682018060405250810190611cde9190614c75565b905090565b611ceb612e39565b611cf56000614109565b565b6101025460009081906001600160a01b03163314611d2a57604051633338cdbd60e11b81523360048201526024016108ce565b600060019050600060019050600080611d4d876000015185858a60400151613f57565b91509150806101056000828254611d649190614c8e565b90915550611d729050614168565b90945092505050915091565b600260c9541415611dd15760405162461bcd60e51b815260206004820152601f60248201527f5265656e7472616e637947756172643a207265656e7472616e742063616c6c0060448201526064016108ce565b600260c955611dde612e39565b81611dfc57604051631f2a200560e01b815260040160405180910390fd5b816101046000828254611e0f9190614b71565b909155505060fb5460ff5460405163f3fef3a360e01b81526001600160a01b0391821660048201526024810185905291169063f3fef3a390604401600060405180830381600087803b158015611e6457600080fd5b505af1158015611e78573d6000803e3d6000fd5b505060ff5460405163a9059cbb60e01b81526001600160a01b03858116600483015260248201879052909116925063a9059cbb9150604401602060405180830381600087803b158015611eca57600080fd5b505af1158015611ede573d6000803e3d6000fd5b505050506040513d601f19601f82011682018060405250810190611f029190614b88565b506040518281526001600160a01b0382169033907febca967c406b3238e3b50354b2ae287ad6f68959ee41bf7bfea1342c5fe05b0e9060200160405180910390a35050600160c955565b611f54612e39565b6001600160a01b038116611f94576040517fecc6fdf000000000000000000000000000000000000000000000000000000000815260040160405180910390fd5b610102805473ffffffffffffffffffffffffffffffffffffffff19166001600160a01b0392909216919091179055565b600080611fd1600f6109e4565b9050600060fc60009054906101000a90046001600160a01b03166001600160a01b0316636896fabf6040518163ffffffff1660e01b815260040160206040518083038186803b15801561202357600080fd5b505afa158015612037573d6000803e3d6000fd5b505050506040513d601f19601f8201168201806040525081019061205b9190614baa565b610101546040517fb2e271480000000000000000000000000000000000000000000000000000000081523060048201526001600160a01b03918216602482015291169063b2e271489060440160206040518083038186803b1580156120bf57600080fd5b505afa1580156120d3573d6000803e3d6000fd5b505050506040513d601f19601f820116820180604052508101906120f79190614c75565b905061210c612105826141b9565b8390612e0f565b9250505090565b610102546001600160a01b0316331461214157604051633338cdbd60e11b81523360048201526024016108ce565b8061010360008282546121549190614c8e565b90915550506101005460fb5460405163095ea7b360e01b81526001600160a01b0391821660048201526024810184905291169063095ea7b390604401602060405180830381600087803b1580156121aa57600080fd5b505af11580156121be573d6000803e3d6000fd5b505050506040513d601f19601f820116820180604052508101906121e29190614b88565b5060fb54610100546040516311f9fbc960e21b81526001600160a01b039182166004820152602481018490529116906347e7ef2490604401600060405180830381600087803b15801561223457600080fd5b505af1158015612248573d6000803e3d6000fd5b5050505050565b60fd54610101546040517fedd0b5cb0000000000000000000000000000000000000000000000000000000081526001600160a01b039182166004820152600092919091169063edd0b5cb9060240160206040518083038186803b1580156122b557600080fd5b505afa1580156122c9573d6000803e3d6000fd5b505050506040513d601f19601f820116820180604052508101906122ed9190614c58565b62ffffff16905090565b6122ff612e39565b8061231d57604051631f2a200560e01b815260040160405180910390fd5b61010781905560405181815233907f34bdcf409ce95f734fb7583240c6266616d468cf38e556801bdb3e7e8733a5559060200160405180910390a250565b610102546000906001600160a01b0316331461238c57604051633338cdbd60e11b81523360048201526024016108ce565b600061242060ff60009054906101000a90046001600160a01b03166001600160a01b031663313ce5676040518163ffffffff1660e01b815260040160206040518083038186803b1580156123df57600080fd5b505afa1580156123f3573d6000803e3d6000fd5b505050506040513d601f19601f820116820180604052508101906124179190614c1f565b84906012612a6d565b905061242b816141d8565b80610108600082825461243e9190614ca6565b925050819055508061010560008282546124589190614c8e565b909155506124669050614168565b60ff5460fb5460405163095ea7b360e01b81526001600160a01b0391821660048201526024810186905291169063095ea7b390604401602060405180830381600087803b1580156124b657600080fd5b505af11580156124ca573d6000803e3d6000fd5b505050506040513d601f19601f820116820180604052508101906124ee9190614b88565b5060fb5460ff546040516311f9fbc960e21b81526001600160a01b039182166004820152602481018690529116906347e7ef2490604401600060405180830381600087803b15801561253f57600080fd5b505af1158015612553573d6000803e3d6000fd5b509293505050505b919050565b60008060fc60009054906101000a90046001600160a01b03166001600160a01b0316636896fabf6040518163ffffffff1660e01b815260040160206040518083038186803b1580156125b157600080fd5b505afa1580156125c5573d6000803e3d6000fd5b505050506040513d601f19601f820116820180604052508101906125e99190614baa565b9050600060fc60009054906101000a90046001600160a01b03166001600160a01b031663f807cd226040518163ffffffff1660e01b815260040160206040518083038186803b15801561263b57600080fd5b505afa15801561264f573d6000803e3d6000fd5b505050506040513d601f19601f820116820180604052508101906126739190614baa565b60fb546040517ff8b2cb4f0000000000000000000000000000000000000000000000000000000081526001600160a01b0387811660048301529293506000929091169063f8b2cb4f9060240160206040518083038186803b1580156126d757600080fd5b505afa1580156126eb573d6000803e3d6000fd5b505050506040513d601f19601f8201168201806040525081019061270f9190614c75565b9050600081121561274f576040517fb8176028000000000000000000000000000000000000000000000000000000008152600481018290526024016108ce565b6040517f80f57f110000000000000000000000000000000000000000000000000000000081526001600160a01b038681166004830152600091908416906380f57f119060240160206040518083038186803b1580156127ad57600080fd5b505afa1580156127c1573d6000803e3d6000fd5b505050506040513d601f19601f820116820180604052508101906127e59190614c75565b9050600061283a60ff60009054906101000a90046001600160a01b03166001600160a01b031663313ce5676040518163ffffffff1660e01b815260040160206040518083038186803b1580156123df57600080fd5b6040517fbba85bcf0000000000000000000000000000000000000000000000000000000081526001600160a01b03898116600483015291925060009182919088169063bba85bcf9060240160606040518083038186803b15801561289d57600080fd5b505afa1580156128b1573d6000803e3d6000fd5b505050506040513d601f19601f820116820180604052508101906128d59190614cfe565b92509250506000848284866128ea9190614ca6565b6128f49190614bc7565b6128fe9190614bc7565b90506000811361291657612911816141b9565b612919565b60005b9a9950505050505050505050565b6000612931611fc4565b61010554611cde9190614bc7565b612947612e39565b6001600160a01b0381166129c35760405162461bcd60e51b815260206004820152602660248201527f4f776e61626c653a206e6577206f776e657220697320746865207a65726f206160448201527f646472657373000000000000000000000000000000000000000000000000000060648201526084016108ce565b61123681614109565b6000610d306001600160a01b038316806c0100000000000000000000000061423b565b6000610d3082670de0b6b3a76400006c0100000000000000000000000061423b565b6000612a1b612927565b9050600081131580612a2c57508181105b1561172f576040517f1f04c58a00000000000000000000000000000000000000000000000000000000815260048101829052602481018390526044016108ce565b6000612a7a83600a614e10565b612a8583600a614e10565b612a8f9086614e1f565b612a999190614e3e565b90505b9392505050565b600054610100900460ff16612b205760405162461bcd60e51b815260206004820152602b60248201527f496e697469616c697a61626c653a20636f6e7472616374206973206e6f74206960448201527f6e697469616c697a696e6700000000000000000000000000000000000000000060648201526084016108ce565b611cf56143b5565b600054610100900460ff16611cf55760405162461bcd60e51b815260206004820152602b60248201527f496e697469616c697a61626c653a20636f6e7472616374206973206e6f74206960448201527f6e697469616c697a696e6700000000000000000000000000000000000000000060648201526084016108ce565b60005b815181101561172f57612be6828281518110612bc657612bc6614c42565b60200260200101516001600160a01b03166001600160a01b03163b151590565b612c4657818181518110612bfc57612bfc614c42565b60200260200101516040517f247e97010000000000000000000000000000000000000000000000000000000081526004016108ce91906001600160a01b0391909116815260200190565b80612c5081614e60565b915050612ba8565b611236612e39565b7f4910fdfa16fed3260ed0e7147f7cc6da11a60208b5b9406d12a635614ffd91435460ff1615612c93576109df8361443b565b826001600160a01b03166352d1902d6040518163ffffffff1660e01b815260040160206040518083038186803b158015612ccc57600080fd5b505afa925050508015612cfc575060408051601f3d908101601f19168201909252612cf991810190614c75565b60015b612d6e5760405162461bcd60e51b815260206004820152602e60248201527f45524331393637557067726164653a206e657720696d706c656d656e7461746960448201527f6f6e206973206e6f74205555505300000000000000000000000000000000000060648201526084016108ce565b7f360894a13ba1a3210667c828492db98dca3e2076cc3735a920a3ca505d382bbc8114612e035760405162461bcd60e51b815260206004820152602960248201527f45524331393637557067726164653a20756e737570706f727465642070726f7860448201527f6961626c6555554944000000000000000000000000000000000000000000000060648201526084016108ce565b506109df838383614506565b6000612a9c8383670de0b6b3a7640000614531565b6000612a9c83670de0b6b3a76400008461455f565b6097546001600160a01b03163314611cf55760405162461bcd60e51b815260206004820181905260248201527f4f776e61626c653a2063616c6c6572206973206e6f7420746865206f776e657260448201526064016108ce565b6000806000612f2a60ff60009054906101000a90046001600160a01b03166001600160a01b031663313ce5676040518163ffffffff1660e01b815260040160206040518083038186803b158015612ee957600080fd5b505afa158015612efd573d6000803e3d6000fd5b505050506040513d601f19601f82011682018060405250810190612f219190614c1f565b87906012612a6d565b9050612f35816141d8565b60ff546040516323b872dd60e01b81526001600160a01b03868116600483015230602483015260448201899052909116906323b872dd90606401602060405180830381600087803b158015612f8957600080fd5b505af1158015612f9d573d6000803e3d6000fd5b505050506040513d601f19601f82011682018060405250810190612fc19190614b88565b5060ff5460fb5460405163095ea7b360e01b81526001600160a01b0391821660048201526024810189905291169063095ea7b390604401602060405180830381600087803b15801561301257600080fd5b505af1158015613026573d6000803e3d6000fd5b505050506040513d601f19601f8201168201806040525081019061304a9190614b88565b5060fb5460ff546040516311f9fbc960e21b81526001600160a01b039182166004820152602481018990529116906347e7ef2490604401600060405180830381600087803b15801561309b57600080fd5b505af11580156130af573d6000803e3d6000fd5b50505050600080600190506000806130c98585858c613f57565b60fb546101005460405163f3fef3a360e01b81526001600160a01b03918216600482015260248101859052939550919350169063f3fef3a390604401600060405180830381600087803b15801561311f57600080fd5b505af1158015613133573d6000803e3d6000fd5b50506101005460405163a9059cbb60e01b81526001600160a01b038c8116600483015260248201879052909116925063a9059cbb9150604401602060405180830381600087803b15801561318657600080fd5b505af115801561319a573d6000803e3d6000fd5b505050506040513d601f19601f820116820180604052508101906131be9190614b88565b50604080518381526020810183905260008183015290517f4cd317f75ff0e2be1dcc047a844e7e63c97d11a79ff3eac56a12ff4f378c0adc9181900360600190a190999098509650505050505050565b600080600061326460ff60009054906101000a90046001600160a01b03166001600160a01b031663313ce5676040518163ffffffff1660e01b815260040160206040518083038186803b158015612ee957600080fd5b905061326f81612a11565b6001600080806132818585838c613f57565b9150915060006132996132926112a6565b8490612e0f565b6132a39084614c8e565b610100546040516323b872dd60e01b81526001600160a01b038c81166004830152306024830152604482018490529293509116906323b872dd90606401602060405180830381600087803b1580156132fa57600080fd5b505af115801561330e573d6000803e3d6000fd5b505050506040513d601f19601f820116820180604052508101906133329190614b88565b506101005460fb5460405163095ea7b360e01b81526001600160a01b0391821660048201526024810184905291169063095ea7b390604401602060405180830381600087803b15801561338457600080fd5b505af1158015613398573d6000803e3d6000fd5b505050506040513d601f19601f820116820180604052508101906133bc9190614b88565b5060fb54610100546040516311f9fbc960e21b81526001600160a01b039182166004820152602481018490529116906347e7ef2490604401600060405180830381600087803b15801561340e57600080fd5b505af1158015613422573d6000803e3d6000fd5b505060fb5460ff5460405163f3fef3a360e01b81526001600160a01b03928316945063f3fef3a393506134729291909116908f906004016001600160a01b03929092168252602082015260400190565b600060405180830381600087803b15801561348c57600080fd5b505af11580156134a0573d6000803e3d6000fd5b505060ff5460405163a9059cbb60e01b81526001600160a01b03909116925063a9059cbb91506134ea908c908f906004016001600160a01b03929092168252602082015260400190565b602060405180830381600087803b15801561350457600080fd5b505af1158015613518573d6000803e3d6000fd5b505050506040513d601f19601f8201168201806040525081019061353c9190614b88565b50604080518481526020810184905260008183015290517f4cd317f75ff0e2be1dcc047a844e7e63c97d11a79ff3eac56a12ff4f378c0adc9181900360600190a15090999098509650505050505050565b600080600061362460ff60009054906101000a90046001600160a01b03166001600160a01b031663313ce5676040518163ffffffff1660e01b815260040160206040518083038186803b1580156135e357600080fd5b505afa1580156135f7573d6000803e3d6000fd5b505050506040513d601f19601f8201168201806040525081019061361b9190614c1f565b89906012612a6d565b905061362f816141d8565b6000600181806136418582858d613f57565b60fb546101005460405163f3fef3a360e01b81526001600160a01b03918216600482015260248101859052939550919350169063f3fef3a390604401600060405180830381600087803b15801561369757600080fd5b505af11580156136ab573d6000803e3d6000fd5b5050505060006040518060c0016040528061010060009054906101000a90046001600160a01b03166001600160a01b0316815260200160ff60009054906101000a90046001600160a01b03166001600160a01b031681526020018481526020018d81526020018c6001600160a01b031681526020018b62ffffff168152509050600060fe60009054906101000a90046001600160a01b03166001600160a01b03166368e32802836040518263ffffffff1660e01b81526004016137c19190600060c0820190506001600160a01b0380845116835280602085015116602084015260408401516040840152606084015160608401528060808501511660808401525062ffffff60a08401511660a083015292915050565b602060405180830381600087803b1580156137db57600080fd5b505af11580156137ef573d6000803e3d6000fd5b505050506040513d601f19601f820116820180604052508101906138139190614c75565b90506000816138ab601260ff60009054906101000a90046001600160a01b03166001600160a01b031663313ce5676040518163ffffffff1660e01b815260040160206040518083038186803b15801561386b57600080fd5b505afa15801561387f573d6000803e3d6000fd5b505050506040513d601f19601f820116820180604052508101906138a39190614c1f565b879190612a6d565b6138b59190614bc7565b905060008113156139525760ff546040516323b872dd60e01b81526001600160a01b038d8116600483015230602483015260448201849052909116906323b872dd90606401602060405180830381600087803b15801561391457600080fd5b505af1158015613928573d6000803e3d6000fd5b505050506040513d601f19601f8201168201806040525081019061394c9190614b88565b50613a18565b6000811215613a185760ff546001600160a01b03166323b872dd308d613977856141b9565b6040517fffffffff0000000000000000000000000000000000000000000000000000000060e086901b1681526001600160a01b0393841660048201529290911660248301526044820152606401602060405180830381600087803b1580156139de57600080fd5b505af11580156139f2573d6000803e3d6000fd5b505050506040513d601f19601f82011682018060405250810190613a169190614b88565b505b60fb5460ff546040516311f9fbc960e21b81526001600160a01b039182166004820152602481018790529116906347e7ef2490604401600060405180830381600087803b158015613a6857600080fd5b505af1158015613a7c573d6000803e3d6000fd5b505060408051888152602081018890529081018490527f4cd317f75ff0e2be1dcc047a844e7e63c97d11a79ff3eac56a12ff4f378c0adc9250606001905060405180910390a150929d919c50909a5050505050505050505050565b6000806000613b2d60ff60009054906101000a90046001600160a01b03166001600160a01b031663313ce5676040518163ffffffff1660e01b815260040160206040518083038186803b1580156135e357600080fd5b9050613b3881612a11565b60fb5460ff5460405163f3fef3a360e01b81526001600160a01b039182166004820152602481018b905291169063f3fef3a390604401600060405180830381600087803b158015613b8857600080fd5b505af1158015613b9c573d6000803e3d6000fd5b50506040805160c08101825260ff546001600160a01b03908116825261010054811660208301908152828401878152606084018e81528d84166080860190815262ffffff8e811660a0880190815260fe5498517f68e328020000000000000000000000000000000000000000000000000000000081528851881660048201529551871660248701529351604486015291516064850152518416608484015290511660a48201529194506000935091909116906368e328029060c401602060405180830381600087803b158015613c7157600080fd5b505af1158015613c85573d6000803e3d6000fd5b505050506040513d601f19601f82011682018060405250810190613ca99190614c75565b60fb54610100546040516311f9fbc960e21b81526001600160a01b0391821660048201526024810184905292935016906347e7ef2490604401600060405180830381600087803b158015613cfc57600080fd5b505af1158015613d10573d6000803e3d6000fd5b50505050600080613d2585600160008d613f57565b90925090506000613d368484614bc7565b90506000811315613e3d57610100546040516323b872dd60e01b81526001600160a01b038b8116600483015230602483015260448201849052909116906323b872dd90606401602060405180830381600087803b158015613d9657600080fd5b505af1158015613daa573d6000803e3d6000fd5b505050506040513d601f19601f82011682018060405250810190613dce9190614b88565b5060fb54610100546040516311f9fbc960e21b81526001600160a01b039182166004820152602481018490529116906347e7ef2490604401600060405180830381600087803b158015613e2057600080fd5b505af1158015613e34573d6000803e3d6000fd5b50505050613f04565b6000811215613f0457610100546001600160a01b03166323b872dd308b613e63856141b9565b6040517fffffffff0000000000000000000000000000000000000000000000000000000060e086901b1681526001600160a01b0393841660048201529290911660248301526044820152606401602060405180830381600087803b158015613eca57600080fd5b505af1158015613ede573d6000803e3d6000fd5b505050506040513d601f19601f82011682018060405250810190613f029190614b88565b505b60408051848152602081018490529081018290527f4cd317f75ff0e2be1dcc047a844e7e63c97d11a79ff3eac56a12ff4f378c0adc9060600160405180910390a150909b909a5098505050505050505050565b6040805161010081018252610101546001600160a01b03908116825285151560208301908152851515838501908152606084018981526000608086018181524260a0880190815289871660c0890190815260e0890184815260fc549a517fb6b1b6c30000000000000000000000000000000000000000000000000000000081528a518a16600482015297511515602489015295511515604488015293516064870152905160848601525160a48501529051841660c4840152905160e48301529384938493909284928392169063b6b1b6c390610104016040805180830381600087803b15801561404657600080fd5b505af115801561405a573d6000803e3d6000fd5b505050506040513d601f19601f8201168201806040525081019061407e9190614e7b565b91509150600061408d8261457e565b90508061010660008282546140a29190614c8e565b9091555050604080518b15158152602081018d90528a1515818301526001600160a01b038a16606082015290517f9a15d84188925e678e5ac0dacda00aa8a73ebe2346741b3b64fc9919f494bbe49181900360800190a15090999098509650505050505050565b609780546001600160a01b0383811673ffffffffffffffffffffffffffffffffffffffff19831681179093556040519116919082907f8be0079c531659141344cd1fd0a4f28419497f9722a3daafe3b4186f6b6457e090600090a35050565b61010754610105541115611cf55761010754610105546040517fdc681c5a000000000000000000000000000000000000000000000000000000008152600481019290925260248201526044016108ce565b6000808212156141d4576141cf82600019614e9f565b610d30565b5090565b60006141e2612927565b9050600081121580612a2c5750816141f9826141b9565b101561172f576040517f1f04c58a00000000000000000000000000000000000000000000000000000000815260048101829052602481018390526044016108ce565b600080806000198587098587029250828110838203039150508060001415614275576000841161426a57600080fd5b508290049050612a9c565b80841161428157600080fd5b60008486880980840393811190920391905060006142a186196001614c8e565b86169586900495938490049360008190030460010190506142c28184614e1f565b9093179260006142d3876003614e1f565b60021890506142e28188614e1f565b6142ed906002614b71565b6142f79082614e1f565b90506143038188614e1f565b61430e906002614b71565b6143189082614e1f565b90506143248188614e1f565b61432f906002614b71565b6143399082614e1f565b90506143458188614e1f565b614350906002614b71565b61435a9082614e1f565b90506143668188614e1f565b614371906002614b71565b61437b9082614e1f565b90506143878188614e1f565b614392906002614b71565b61439c9082614e1f565b90506143a88186614e1f565b9998505050505050505050565b600054610100900460ff166144325760405162461bcd60e51b815260206004820152602b60248201527f496e697469616c697a61626c653a20636f6e7472616374206973206e6f74206960448201527f6e697469616c697a696e6700000000000000000000000000000000000000000060648201526084016108ce565b611cf533614109565b6001600160a01b0381163b6144b85760405162461bcd60e51b815260206004820152602d60248201527f455243313936373a206e657720696d706c656d656e746174696f6e206973206e60448201527f6f74206120636f6e74726163740000000000000000000000000000000000000060648201526084016108ce565b7f360894a13ba1a3210667c828492db98dca3e2076cc3735a920a3ca505d382bbc805473ffffffffffffffffffffffffffffffffffffffff19166001600160a01b0392909216919091179055565b61450f8361458b565b60008251118061451c5750805b156109df5761452b83836145cb565b50505050565b82820281151584158583048514171661454957600080fd5b6001826001830304018115150290509392505050565b82820281151584158583048514171661457757600080fd5b0492915050565b6000610d306121056112a6565b6145948161443b565b6040516001600160a01b038216907fbc7cd75a20ee27fd9adebab32041f755214dbc6bffa90cc0225b39da2e5c2d3b90600090a250565b60606001600160a01b0383163b61464a5760405162461bcd60e51b815260206004820152602660248201527f416464726573733a2064656c65676174652063616c6c20746f206e6f6e2d636f60448201527f6e7472616374000000000000000000000000000000000000000000000000000060648201526084016108ce565b600080846001600160a01b0316846040516146659190614f3f565b600060405180830381855af49150503d80600081146146a0576040519150601f19603f3d011682016040523d82523d6000602084013e6146a5565b606091505b50915091506146cd8282604051806060016040528060278152602001614f5c602791396146d6565b95945050505050565b606083156146e5575081612a9c565b8251156146f55782518084602001fd5b8160405162461bcd60e51b81526004016108ce9190614b28565b6001600160a01b038116811461123657600080fd5b6000806040838503121561473757600080fd5b8235915060208301356147498161470f565b809150509250929050565b60006020828403121561476657600080fd5b813563ffffffff81168114612a9c57600080fd5b600080600080600080600060e0888a03121561479557600080fd5b87356147a08161470f565b965060208801356147b08161470f565b955060408801356147c08161470f565b945060608801356147d08161470f565b935060808801356147e08161470f565b925060a08801356147f08161470f565b915060c08801356148008161470f565b8091505092959891949750929550565b60006020828403121561482257600080fd5b8135612a9c8161470f565b8035600081900b811461255b57600080fd5b6000806000806080858703121561485557600080fd5b843593506148656020860161482d565b925060408501356148758161470f565b915060608501356148858161470f565b939692955090935050565b62ffffff8116811461123657600080fd5b60008060008060008060c087890312156148ba57600080fd5b863595506020870135945060408701356148d38161470f565b935060608701356148e381614890565b92506148f16080880161482d565b915060a08701356149018161470f565b809150509295509295509295565b634e487b7160e01b600052604160045260246000fd5b604051601f8201601f1916810167ffffffffffffffff8111828210171561494e5761494e61490f565b604052919050565b6000806040838503121561496957600080fd5b82356149748161470f565b915060208381013567ffffffffffffffff8082111561499257600080fd5b818601915086601f8301126149a657600080fd5b8135818111156149b8576149b861490f565b6149ca84601f19601f84011601614925565b915080825287848285010111156149e057600080fd5b80848401858401376000848284010152508093505050509250929050565b600060808284031215614a1057600080fd5b6040516080810181811067ffffffffffffffff82111715614a3357614a3361490f565b604052823581526020830135614a488161470f565b60208201526040830135614a5b8161470f565b60408201526060830135614a6e8161470f565b60608201529392505050565b600060608284031215614a8c57600080fd5b6040516060810181811067ffffffffffffffff82111715614aaf57614aaf61490f565b604052823581526020830135614ac48161470f565b60208201526040830135614ad78161470f565b60408201529392505050565b600060208284031215614af557600080fd5b5035919050565b60005b83811015614b17578181015183820152602001614aff565b8381111561452b5750506000910152565b6020815260008251806020840152614b47816040850160208701614afc565b601f01601f19169190910160400192915050565b634e487b7160e01b600052601160045260246000fd5b600082821015614b8357614b83614b5b565b500390565b600060208284031215614b9a57600080fd5b81518015158114612a9c57600080fd5b600060208284031215614bbc57600080fd5b8151612a9c8161470f565b600080831283600160ff1b01831281151615614be557614be5614b5b565b837f7fffffffffffffffffffffffffffffffffffffffffffffffffffffffffffffff018313811615614c1957614c19614b5b565b50500390565b600060208284031215614c3157600080fd5b815160ff81168114612a9c57600080fd5b634e487b7160e01b600052603260045260246000fd5b600060208284031215614c6a57600080fd5b8151612a9c81614890565b600060208284031215614c8757600080fd5b5051919050565b60008219821115614ca157614ca1614b5b565b500190565b6000808212827f7fffffffffffffffffffffffffffffffffffffffffffffffffffffffffffffff03841381151615614ce057614ce0614b5b565b82600160ff1b038412811615614cf857614cf8614b5b565b50500190565b600080600060608486031215614d1357600080fd5b8351925060208401519150604084015190509250925092565b600181815b80851115614d67578160001904821115614d4d57614d4d614b5b565b80851615614d5a57918102915b93841c9390800290614d31565b509250929050565b600082614d7e57506001610d30565b81614d8b57506000610d30565b8160018114614da15760028114614dab57614dc7565b6001915050610d30565b60ff841115614dbc57614dbc614b5b565b50506001821b610d30565b5060208310610133831016604e8410600b8410161715614dea575081810a610d30565b614df48383614d2c565b8060001904821115614e0857614e08614b5b565b029392505050565b6000612a9c60ff841683614d6f565b6000816000190483118215151615614e3957614e39614b5b565b500290565b600082614e5b57634e487b7160e01b600052601260045260246000fd5b500490565b6000600019821415614e7457614e74614b5b565b5060010190565b60008060408385031215614e8e57600080fd5b505080516020909101519092909150565b60007f7fffffffffffffffffffffffffffffffffffffffffffffffffffffffffffffff600084136000841385830485118282161615614ee057614ee0614b5b565b600160ff1b6000871286820588128184161615614eff57614eff614b5b565b60008712925087820587128484161615614f1b57614f1b614b5b565b87850587128184161615614f3157614f31614b5b565b505050929093029392505050565b60008251614f51818460208701614afc565b919091019291505056fe416464726573733a206c6f772d6c6576656c2064656c65676174652063616c6c206661696c6564a2646970667358221220ea96acafbee5527c2ca2d88f4deb494ba9446269fa4db8ccc17c366c1be20ace64736f6c63430008090033",
  "linkReferences": {},
  "deployedLinkReferences": {}
}