{
    "_format": "hh-sol-artifact-1",
    "contractName": "UXDController",
    "sourceName": "contracts/core/UXDController.sol",
    "abi": [
        {
            "inputs": [
                {
                    "internalType": "address",
                    "name": "registryAddress",
                    "type": "address"
                },
                {
                    "internalType": "address",
                    "name": "_weth",
                    "type": "address"
                }
            ],
            "stateMutability": "nonpayable",
            "type": "constructor"
        },
        {
            "inputs": [
                {
                    "internalType": "address",
                    "name": "token",
                    "type": "address"
                },
                {
                    "internalType": "address",
                    "name": "owner",
                    "type": "address"
                },
                {
                    "internalType": "address",
                    "name": "spender",
                    "type": "address"
                },
                {
                    "internalType": "uint256",
                    "name": "amount",
                    "type": "uint256"
                }
            ],
            "name": "Ctrl_Not_Approved",
            "type": "error"
        },
        {
            "inputs": [
                {
                    "internalType": "address",
                    "name": "token",
                    "type": "address"
                }
            ],
            "name": "Ctrl_Not_Whitelisted",
            "type": "error"
        },
        {
            "inputs": [
                {
                    "internalType": "uint256",
                    "name": "amount",
                    "type": "uint256"
                },
                {
                    "internalType": "address",
                    "name": "to",
                    "type": "address"
                }
            ],
            "name": "Ctrl_Transfer_Failed",
            "type": "error"
        },
        {
            "inputs": [],
            "name": "ErrZeroAddress",
            "type": "error"
        },
        {
            "inputs": [
                {
                    "internalType": "address",
                    "name": "governor",
                    "type": "address"
                },
                {
                    "internalType": "address",
                    "name": "sender",
                    "type": "address"
                }
            ],
            "name": "NotGovernor",
            "type": "error"
        },
        {
            "anonymous": false,
            "inputs": [
                {
                    "indexed": true,
                    "internalType": "address",
                    "name": "account",
                    "type": "address"
                },
                {
                    "indexed": false,
                    "internalType": "uint256",
                    "name": "base",
                    "type": "uint256"
                },
                {
                    "indexed": false,
                    "internalType": "uint256",
                    "name": "quote",
                    "type": "uint256"
                }
            ],
            "name": "Minted",
            "type": "event"
        },
        {
            "anonymous": false,
            "inputs": [
                {
                    "indexed": true,
                    "internalType": "address",
                    "name": "previousOwner",
                    "type": "address"
                },
                {
                    "indexed": true,
                    "internalType": "address",
                    "name": "newOwner",
                    "type": "address"
                }
            ],
            "name": "OwnershipTransferred",
            "type": "event"
        },
        {
            "anonymous": false,
            "inputs": [
                {
                    "indexed": true,
                    "internalType": "address",
                    "name": "account",
                    "type": "address"
                },
                {
                    "indexed": false,
                    "internalType": "uint256",
                    "name": "base",
                    "type": "uint256"
                },
                {
                    "indexed": false,
                    "internalType": "uint256",
                    "name": "quote",
                    "type": "uint256"
                }
            ],
            "name": "Redeemed",
            "type": "event"
        },
        {
            "anonymous": false,
            "inputs": [
                {
                    "indexed": true,
                    "internalType": "address",
                    "name": "by",
                    "type": "address"
                },
                {
                    "indexed": true,
                    "internalType": "address",
                    "name": "newRouter",
                    "type": "address"
                }
            ],
            "name": "RouterUpdated",
            "type": "event"
        },
        {
            "anonymous": false,
            "inputs": [
                {
                    "indexed": true,
                    "internalType": "address",
                    "name": "by",
                    "type": "address"
                },
                {
                    "indexed": true,
                    "internalType": "address",
                    "name": "token",
                    "type": "address"
                },
                {
                    "indexed": false,
                    "internalType": "bool",
                    "name": "isWhitelisted",
                    "type": "bool"
                },
                {
                    "indexed": false,
                    "internalType": "bool",
                    "name": "isBaseToken",
                    "type": "bool"
                }
            ],
            "name": "WhitelistUpdated",
            "type": "event"
        },
        {
            "inputs": [
                {
                    "internalType": "address",
                    "name": "",
                    "type": "address"
                }
            ],
            "name": "collateralDeposited",
            "outputs": [
                {
                    "internalType": "uint256",
                    "name": "",
                    "type": "uint256"
                }
            ],
            "stateMutability": "view",
            "type": "function"
        },
        {
            "inputs": [
                {
                    "internalType": "uint256",
                    "name": "",
                    "type": "uint256"
                }
            ],
            "name": "collateralList",
            "outputs": [
                {
                    "internalType": "address",
                    "name": "",
                    "type": "address"
                }
            ],
            "stateMutability": "view",
            "type": "function"
        },
        {
            "inputs": [
                {
                    "internalType": "address",
                    "name": "",
                    "type": "address"
                }
            ],
            "name": "collateralTokens",
            "outputs": [
                {
                    "internalType": "bool",
                    "name": "",
                    "type": "bool"
                }
            ],
            "stateMutability": "view",
            "type": "function"
        },
        {
            "inputs": [
                {
                    "internalType": "address",
                    "name": "market",
                    "type": "address"
                },
                {
                    "internalType": "address",
                    "name": "collateralToken",
                    "type": "address"
                },
                {
                    "internalType": "uint256",
                    "name": "amount",
                    "type": "uint256"
                }
            ],
            "name": "depositInsurance",
            "outputs": [],
            "stateMutability": "nonpayable",
            "type": "function"
        },
        {
            "inputs": [],
            "name": "getCollateralInfo",
            "outputs": [
                {
                    "components": [
                        {
                            "internalType": "address",
                            "name": "token",
                            "type": "address"
                        },
                        {
                            "internalType": "uint256",
                            "name": "redeemable",
                            "type": "uint256"
                        },
                        {
                            "internalType": "uint256",
                            "name": "minted",
                            "type": "uint256"
                        }
                    ],
                    "internalType": "struct UXDController.CollateralInfo[]",
                    "name": "info",
                    "type": "tuple[]"
                }
            ],
            "stateMutability": "view",
            "type": "function"
        },
        {
            "inputs": [],
            "name": "governor",
            "outputs": [
                {
                    "internalType": "address",
                    "name": "",
                    "type": "address"
                }
            ],
            "stateMutability": "view",
            "type": "function"
        },
        {
            "inputs": [],
            "name": "insuranceToken",
            "outputs": [
                {
                    "internalType": "contract IERC20",
                    "name": "",
                    "type": "address"
                }
            ],
            "stateMutability": "view",
            "type": "function"
        },
        {
            "inputs": [
                {
                    "internalType": "address",
                    "name": "market",
                    "type": "address"
                },
                {
                    "internalType": "address",
                    "name": "collateralToken",
                    "type": "address"
                },
                {
                    "internalType": "uint256",
                    "name": "collateralAmount",
                    "type": "uint256"
                },
                {
                    "internalType": "uint160",
                    "name": "sqrtPriceLimitX96",
                    "type": "uint160"
                }
            ],
            "name": "mint",
            "outputs": [
                {
                    "internalType": "uint256",
                    "name": "",
                    "type": "uint256"
                },
                {
                    "internalType": "uint256",
                    "name": "",
                    "type": "uint256"
                }
            ],
            "stateMutability": "nonpayable",
            "type": "function"
        },
        {
            "inputs": [
                {
                    "internalType": "address",
                    "name": "market",
                    "type": "address"
                },
                {
                    "internalType": "uint160",
                    "name": "sqrtPriceLimitX96",
                    "type": "uint160"
                }
            ],
            "name": "mintWithEth",
            "outputs": [
                {
                    "internalType": "uint256",
                    "name": "",
                    "type": "uint256"
                },
                {
                    "internalType": "uint256",
                    "name": "",
                    "type": "uint256"
                }
            ],
            "stateMutability": "payable",
            "type": "function"
        },
        {
            "inputs": [
                {
                    "internalType": "address",
                    "name": "",
                    "type": "address"
                }
            ],
            "name": "mintedPerCollateral",
            "outputs": [
                {
                    "internalType": "uint256",
                    "name": "",
                    "type": "uint256"
                }
            ],
            "stateMutability": "view",
            "type": "function"
        },
        {
            "inputs": [],
            "name": "owner",
            "outputs": [
                {
                    "internalType": "address",
                    "name": "",
                    "type": "address"
                }
            ],
            "stateMutability": "view",
            "type": "function"
        },
        {
            "inputs": [
                {
                    "internalType": "address",
                    "name": "market",
                    "type": "address"
                },
                {
                    "internalType": "address",
                    "name": "collateralToken",
                    "type": "address"
                },
                {
                    "internalType": "uint256",
                    "name": "redemptionAmount",
                    "type": "uint256"
                },
                {
                    "internalType": "uint160",
                    "name": "sqrtPriceLimitX96",
                    "type": "uint160"
                }
            ],
            "name": "redeem",
            "outputs": [
                {
                    "internalType": "uint256",
                    "name": "",
                    "type": "uint256"
                },
                {
                    "internalType": "uint256",
                    "name": "",
                    "type": "uint256"
                }
            ],
            "stateMutability": "nonpayable",
            "type": "function"
        },
        {
            "inputs": [
                {
                    "internalType": "address",
                    "name": "market",
                    "type": "address"
                },
                {
                    "internalType": "uint256",
                    "name": "redemptionAmount",
                    "type": "uint256"
                },
                {
                    "internalType": "uint160",
                    "name": "sqrtPriceLimitX96",
                    "type": "uint160"
                }
            ],
            "name": "redeemEth",
            "outputs": [
                {
                    "internalType": "uint256",
                    "name": "",
                    "type": "uint256"
                },
                {
                    "internalType": "uint256",
                    "name": "",
                    "type": "uint256"
                }
            ],
            "stateMutability": "nonpayable",
            "type": "function"
        },
        {
            "inputs": [
                {
                    "internalType": "address",
                    "name": "",
                    "type": "address"
                }
            ],
            "name": "redeemable",
            "outputs": [
                {
                    "internalType": "uint256",
                    "name": "",
                    "type": "uint256"
                }
            ],
            "stateMutability": "view",
            "type": "function"
        },
        {
            "inputs": [],
            "name": "registry",
            "outputs": [
                {
                    "internalType": "contract IContractRegistry",
                    "name": "",
                    "type": "address"
                }
            ],
            "stateMutability": "view",
            "type": "function"
        },
        {
            "inputs": [],
            "name": "renounceOwnership",
            "outputs": [],
            "stateMutability": "nonpayable",
            "type": "function"
        },
        {
            "inputs": [],
            "name": "router",
            "outputs": [
                {
                    "internalType": "contract IDEXRouter",
                    "name": "",
                    "type": "address"
                }
            ],
            "stateMutability": "view",
            "type": "function"
        },
        {
            "inputs": [
                {
                    "internalType": "address",
                    "name": "_token",
                    "type": "address"
                }
            ],
            "name": "setInsuranceToken",
            "outputs": [],
            "stateMutability": "nonpayable",
            "type": "function"
        },
        {
            "inputs": [
                {
                    "internalType": "address",
                    "name": "_router",
                    "type": "address"
                }
            ],
            "name": "setRouter",
            "outputs": [],
            "stateMutability": "nonpayable",
            "type": "function"
        },
        {
            "inputs": [
                {
                    "internalType": "address",
                    "name": "_token",
                    "type": "address"
                }
            ],
            "name": "setToken",
            "outputs": [],
            "stateMutability": "nonpayable",
            "type": "function"
        },
        {
            "inputs": [
                {
                    "internalType": "address",
                    "name": "newOwner",
                    "type": "address"
                }
            ],
            "name": "transferOwnership",
            "outputs": [],
            "stateMutability": "nonpayable",
            "type": "function"
        },
        {
            "inputs": [],
            "name": "uxdToken",
            "outputs": [
                {
                    "internalType": "contract UXDToken",
                    "name": "",
                    "type": "address"
                }
            ],
            "stateMutability": "view",
            "type": "function"
        },
        {
            "inputs": [],
            "name": "weth9",
            "outputs": [
                {
                    "internalType": "address",
                    "name": "",
                    "type": "address"
                }
            ],
            "stateMutability": "view",
            "type": "function"
        },
        {
            "inputs": [
                {
                    "internalType": "address",
                    "name": "tokenAddress",
                    "type": "address"
                },
                {
                    "internalType": "bool",
                    "name": "isWhitelisted",
                    "type": "bool"
                },
                {
                    "internalType": "bool",
                    "name": "isBaseToken",
                    "type": "bool"
                }
            ],
            "name": "whitelistCollateral",
            "outputs": [],
            "stateMutability": "nonpayable",
            "type": "function"
        },
        {
            "inputs": [
                {
                    "internalType": "address",
                    "name": "market",
                    "type": "address"
                },
                {
                    "internalType": "address",
                    "name": "collateralToken",
                    "type": "address"
                },
                {
                    "internalType": "uint256",
                    "name": "amount",
                    "type": "uint256"
                },
                {
                    "internalType": "address",
                    "name": "to",
                    "type": "address"
                }
            ],
            "name": "withdrawInsuranceTo",
            "outputs": [],
            "stateMutability": "nonpayable",
            "type": "function"
        },
        {
            "stateMutability": "payable",
            "type": "receive"
        }
    ],
    "bytecode": "0x6080604052600880546001600160a01b03191690553480156200002157600080fd5b506040516200232d3803806200232d8339810160408190526200004491620000f8565b8162000050336200008b565b600180546001600160a01b039283166001600160a01b0319918216178255600291909155600d80549390921692169190911790555062000130565b600080546001600160a01b038381166001600160a01b0319831681178455604051919092169283917f8be0079c531659141344cd1fd0a4f28419497f9722a3daafe3b4186f6b6457e09190a35050565b80516001600160a01b0381168114620000f357600080fd5b919050565b600080604083850312156200010c57600080fd5b6200011783620000db565b91506200012760208401620000db565b90509250929050565b6121ed80620001406000396000f3fe60806040526004361061019a5760003560e01c80637110f915116100e15780638da5cb5b1161008a578063cffbc29711610064578063cffbc2971461048c578063d765521a146104cc578063f2fde38b146104ec578063f887ea401461050c57600080fd5b80638da5cb5b1461043b578063986dfcc614610459578063c0d786551461046c57600080fd5b80637b103999116100bb5780637b103999146103db5780637d391f75146103fb5780637f53376a1461041b57600080fd5b80637110f91514610386578063715018a6146103a65780637aaebe23146103bb57600080fd5b80633024a91211610143578063484267a41161011d578063484267a41461031957806350879c1c14610346578063605b8de71461036657600080fd5b80633024a9121461029757806335678728146102b757806337ffc324146102ec57600080fd5b8063144fa6d711610174578063144fa6d7146102335780632e0bcb43146102555780632e13168b1461027757600080fd5b806307159868146101a65780630a4b9ec2146101e35780630c340a241461021e57600080fd5b366101a157005b600080fd5b3480156101b257600080fd5b506004546101c6906001600160a01b031681565b6040516001600160a01b0390911681526020015b60405180910390f35b3480156101ef57600080fd5b506102106101fe366004611d52565b600a6020526000908152604090205481565b6040519081526020016101da565b34801561022a57600080fd5b506101c661052c565b34801561023f57600080fd5b5061025361024e366004611d52565b6105c7565b005b34801561026157600080fd5b5061026a61068e565b6040516101da9190611d6f565b34801561028357600080fd5b50610253610292366004611ddf565b6107b2565b3480156102a357600080fd5b506101c66102b2366004611e2a565b6108a0565b3480156102c357600080fd5b506102d76102d2366004611e43565b6108ca565b604080519283526020830191909152016101da565b3480156102f857600080fd5b50610210610307366004611d52565b600b6020526000908152604090205481565b34801561032557600080fd5b50610210610334366004611d52565b600c6020526000908152604090205481565b34801561035257600080fd5b50600d546101c6906001600160a01b031681565b34801561037257600080fd5b50610253610381366004611e43565b610b58565b34801561039257600080fd5b506102536103a1366004611d52565b610c69565b3480156103b257600080fd5b50610253610ce7565b3480156103c757600080fd5b506102d76103d6366004611e96565b610d4d565b3480156103e757600080fd5b506001546101c6906001600160a01b031681565b34801561040757600080fd5b506003546101c6906001600160a01b031681565b34801561042757600080fd5b506102d7610436366004611e43565b610e26565b34801561044757600080fd5b506000546001600160a01b03166101c6565b6102d7610467366004611ecd565b610e44565b34801561047857600080fd5b50610253610487366004611d52565b610ffd565b34801561049857600080fd5b506104bc6104a7366004611d52565b60066020526000908152604090205460ff1681565b60405190151581526020016101da565b3480156104d857600080fd5b506102536104e7366004611f06565b61107b565b3480156104f857600080fd5b50610253610507366004611d52565b611370565b34801561051857600080fd5b506005546101c6906001600160a01b031681565b600154604080517f0c340a2400000000000000000000000000000000000000000000000000000000815290516000926001600160a01b031691630c340a24916004808301926020929190829003018186803b15801561058a57600080fd5b505afa15801561059e573d6000803e3d6000fd5b505050506040513d601f19601f820116820180604052508101906105c29190611f47565b905090565b6105cf61052c565b6001600160a01b0316336001600160a01b031614610638576105ef61052c565b6040517fb38400080000000000000000000000000000000000000000000000000000000081526001600160a01b0390911660048201523360248201526044015b60405180910390fd5b6001600160a01b03811661065f57604051630ecc6fdf60e41b815260040160405180910390fd5b6003805473ffffffffffffffffffffffffffffffffffffffff19166001600160a01b0392909216919091179055565b60075460609067ffffffffffffffff8111156106ac576106ac611f64565b60405190808252806020026020018201604052801561070a57816020015b6106f7604051806060016040528060006001600160a01b0316815260200160008152602001600081525090565b8152602001906001900390816106ca5790505b50905060005b6007548110156107ae5760006007828154811061072f5761072f611f7a565b6000918252602080832090910154604080516060810182526001600160a01b03909216808352808552600c84528185205483850152808552600b909352928390205492810192909252845190925084908490811061078f5761078f611f7a565b60200260200101819052505080806107a690611fa6565b915050610710565b5090565b6107ba61052c565b6001600160a01b0316336001600160a01b0316146107da576105ef61052c565b6001600160a01b03831660009081526006602090815260408083208054861580157fffffffffffffffffffffffffffffffffffffffffffffffffffffffffffffff009283161790925560099093529220805484151592169190911790556108495761084483611452565b610852565b61085283611507565b60408051831515815282151560208201526001600160a01b0385169133917fa1722c493396a9db8ab972a884fcc6028f1eb1a84c51a04316bb4293a263cb52910160405180910390a3505050565b600781815481106108b057600080fd5b6000918252602090912001546001600160a01b0316905081565b6001600160a01b038316600090815260066020526040812054819060ff16610929576040517f799566630000000000000000000000000000000000000000000000000000000081526001600160a01b038616600482015260240161062f565b6040517fdd62ed3e0000000000000000000000000000000000000000000000000000000081523360048201819052306024830152869186906001600160a01b0384169063dd62ed3e9060440160206040518083038186803b15801561098d57600080fd5b505afa1580156109a1573d6000803e3d6000fd5b505050506040513d601f19601f820116820180604052508101906109c59190611fc1565b1015610a135760405162461bcd60e51b815260206004820152600d60248201527f43543a2021417070726f76656400000000000000000000000000000000000000604482015260640161062f565b600554604051632c147b7560e01b81526001600160a01b038a81166004830152848116926323b872dd92859290911690632c147b759060240160206040518083038186803b158015610a6457600080fd5b505afa158015610a78573d6000803e3d6000fd5b505050506040513d601f19601f82011682018060405250810190610a9c9190611f47565b6040517fffffffff0000000000000000000000000000000000000000000000000000000060e085901b1681526001600160a01b0392831660048201529116602482015260448101899052606401602060405180830381600087803b158015610b0357600080fd5b505af1158015610b17573d6000803e3d6000fd5b505050506040513d601f19601f82011682018060405250810190610b3b9190611fda565b50610b498888888885611618565b93509350505094509492505050565b610b6061052c565b6001600160a01b0316336001600160a01b031614610b80576105ef61052c565b6001600160a01b038116610ba757604051630ecc6fdf60e41b815260040160405180910390fd5b6001600160a01b0383166000908152600a602052604081208054849290610bcf908490611ff7565b90915550506005546040517fd88c030e0000000000000000000000000000000000000000000000000000000081526001600160a01b03868116600483015285811660248301526044820185905283811660648301529091169063d88c030e90608401600060405180830381600087803b158015610c4b57600080fd5b505af1158015610c5f573d6000803e3d6000fd5b5050505050505050565b610c7161052c565b6001600160a01b0316336001600160a01b031614610c91576105ef61052c565b6001600160a01b038116610cb857604051630ecc6fdf60e41b815260040160405180910390fd5b6004805473ffffffffffffffffffffffffffffffffffffffff19166001600160a01b0392909216919091179055565b6000546001600160a01b03163314610d415760405162461bcd60e51b815260206004820181905260248201527f4f776e61626c653a2063616c6c6572206973206e6f7420746865206f776e6572604482015260640161062f565b610d4b6000611979565b565b600d54600090819081908190610d719088906001600160a01b0316888833306119d6565b600d546040517f2e1a7d4d000000000000000000000000000000000000000000000000000000008152600481018490529294509092506001600160a01b031690632e1a7d4d90602401600060405180830381600087803b158015610dd457600080fd5b505af1158015610de8573d6000803e3d6000fd5b505060405133925084156108fc02915084906000818181858888f19350505050158015610e19573d6000803e3d6000fd5b5090969095509350505050565b600080610e378686868633336119d6565b9150915094509492505050565b6000806000349050600d60009054906101000a90046001600160a01b03166001600160a01b031663d0e30db0826040518263ffffffff1660e01b81526004016000604051808303818588803b158015610e9c57600080fd5b505af1158015610eb0573d6000803e3d6000fd5b5050600d54600554604051632c147b7560e01b81526001600160a01b038b81166004830152928316955063a9059cbb945091169150632c147b759060240160206040518083038186803b158015610f0657600080fd5b505afa158015610f1a573d6000803e3d6000fd5b505050506040513d601f19601f82011682018060405250810190610f3e9190611f47565b6040517fffffffff0000000000000000000000000000000000000000000000000000000060e084901b1681526001600160a01b03909116600482015260248101849052604401602060405180830381600087803b158015610f9e57600080fd5b505af1158015610fb2573d6000803e3d6000fd5b505050506040513d601f19601f82011682018060405250810190610fd69190611fda565b50600d54610ff19086906001600160a01b0316348733611618565b92509250509250929050565b61100561052c565b6001600160a01b0316336001600160a01b031614611025576105ef61052c565b6001600160a01b03811661104c57604051630ecc6fdf60e41b815260040160405180910390fd5b6005805473ffffffffffffffffffffffffffffffffffffffff19166001600160a01b0392909216919091179055565b61108361052c565b6001600160a01b0316336001600160a01b0316146110a3576105ef61052c565b6040517fdd62ed3e0000000000000000000000000000000000000000000000000000000081523360048201819052306024830152839183906001600160a01b0384169063dd62ed3e9060440160206040518083038186803b15801561110757600080fd5b505afa15801561111b573d6000803e3d6000fd5b505050506040513d601f19601f8201168201806040525081019061113f9190611fc1565b101561118d5760405162461bcd60e51b815260206004820152600d60248201527f43543a2021417070726f76656400000000000000000000000000000000000000604482015260640161062f565b600554604051632c147b7560e01b81526001600160a01b0387811660048301526000921690632c147b759060240160206040518083038186803b1580156111d357600080fd5b505afa1580156111e7573d6000803e3d6000fd5b505050506040513d601f19601f8201168201806040525081019061120b9190611f47565b6001600160a01b0386166000908152600a602052604081208054929350869290919061123890849061200e565b90915550506040517f23b872dd0000000000000000000000000000000000000000000000000000000081526001600160a01b0383811660048301528281166024830152604482018690528416906323b872dd90606401602060405180830381600087803b1580156112a857600080fd5b505af11580156112bc573d6000803e3d6000fd5b505050506040513d601f19601f820116820180604052508101906112e09190611fda565b506005546040517f449ee1420000000000000000000000000000000000000000000000000000000081526001600160a01b0388811660048301528781166024830152604482018790529091169063449ee14290606401600060405180830381600087803b15801561135057600080fd5b505af1158015611364573d6000803e3d6000fd5b50505050505050505050565b6000546001600160a01b031633146113ca5760405162461bcd60e51b815260206004820181905260248201527f4f776e61626c653a2063616c6c6572206973206e6f7420746865206f776e6572604482015260640161062f565b6001600160a01b0381166114465760405162461bcd60e51b815260206004820152602660248201527f4f776e61626c653a206e6577206f776e657220697320746865207a65726f206160448201527f6464726573730000000000000000000000000000000000000000000000000000606482015260840161062f565b61144f81611979565b50565b60005b6007548110156114a7576007818154811061147257611472611f7a565b6000918252602090912001546001600160a01b0383811691161415611495575050565b8061149f81611fa6565b915050611455565b50600780546001810182556000919091527fa66cc928b5edb82af9bd49922954155ab7b0942694bea4ce44661d9a8736c68801805473ffffffffffffffffffffffffffffffffffffffff19166001600160a01b0392909216919091179055565b60001960005b600754811015611563576007818154811061152a5761152a611f7a565b6000918252602090912001546001600160a01b038481169116141561155157809150611563565b8061155b81611fa6565b91505061150d565b5060001981146116145760078054611579611f7a565b600091825260209091200154600780546001600160a01b0390921691839081106115a5576115a5611f7a565b9060005260206000200160006101000a8154816001600160a01b0302191690836001600160a01b0316021790555060078054806115e4576115e4612026565b6000828152602090208101600019908101805473ffffffffffffffffffffffffffffffffffffffff191690550190555b5050565b600080600086905060006116a76116a2836001600160a01b031663313ce5676040518163ffffffff1660e01b815260040160206040518083038186803b15801561166157600080fd5b505afa158015611675573d6000803e3d6000fd5b505050506040513d601f19601f82011682018060405250810190611699919061203c565b89906012611cb4565b611ce8565b90506000600960008a6001600160a01b03166001600160a01b0316815260200190815260200160002060009054906101000a900460ff16905060006040518060c001604052808c6001600160a01b0316815260200184815260200183151581526020018b6001600160a01b031681526020018a8152602001896001600160a01b03168152509050600080600560009054906101000a90046001600160a01b03166001600160a01b031663b46e57f7846040518263ffffffff1660e01b81526004016117c29190600060c0820190506001600160a01b0380845116835260208401516020840152604084015115156040840152806060850151166060840152608084015160808401528060a08501511660a08401525092915050565b6040805180830381600087803b1580156117db57600080fd5b505af11580156117ef573d6000803e3d6000fd5b505050506040513d601f19601f82011682018060405250810190611813919061205f565b6001600160a01b038e166000908152600a60205260408120805493955091935083928e92919061184490849061200e565b90915550506001600160a01b038d166000908152600c6020526040812080548e929061187190849061200e565b90915550506001600160a01b038d166000908152600b60205260408120805483929061189e90849061200e565b90915550506003546040517f40c10f190000000000000000000000000000000000000000000000000000000081526001600160a01b038c8116600483015260248201849052909116906340c10f1990604401600060405180830381600087803b15801561190a57600080fd5b505af115801561191e573d6000803e3d6000fd5b505060408051868152602081018590526001600160a01b038e1693507f25b428dfde728ccfaddad7e29e4ac23c24ed7fd1a6e3e3f91894a9a073f5dfff92500160405180910390a250909c909b509950505050505050505050565b600080546001600160a01b0383811673ffffffffffffffffffffffffffffffffffffffff19831681178455604051919092169283917f8be0079c531659141344cd1fd0a4f28419497f9722a3daafe3b4186f6b6457e09190a35050565b6001600160a01b038516600090815260066020526040812054819060ff16611a35576040517f799566630000000000000000000000000000000000000000000000000000000081526001600160a01b038816600482015260240161062f565b6000611a4087611ce8565b6040805160e0810182526001600160a01b038c811682526020820184815260018385019081528d8316606085019081526000608086018181528e861660a088019081528d871660c0890190815260055499517f3e0202df000000000000000000000000000000000000000000000000000000008152895189166004820152965160248801529451151560448701529251861660648601525160848501529051841660a48401529051831660c48301529495509193928392911690633e0202df9060e4016040805180830381600087803b158015611b1c57600080fd5b505af1158015611b30573d6000803e3d6000fd5b505050506040513d601f19601f82011682018060405250810190611b54919061205f565b6001600160a01b038d166000908152600a6020526040812080549395509193508492611b81908490611ff7565b90915550506001600160a01b038b166000908152600c602052604081208054849290611bae908490611ff7565b90915550506001600160a01b038b166000908152600b602052604081208054839290611bdb908490611ff7565b90915550506003546040517f9dc29fac0000000000000000000000000000000000000000000000000000000081526001600160a01b038a811660048301526024820184905290911690639dc29fac90604401600060405180830381600087803b158015611c4757600080fd5b505af1158015611c5b573d6000803e3d6000fd5b505060408051858152602081018590526001600160a01b038c1693507ff3a670cd3af7d64b488926880889d08a8585a138ff455227af6737339a1ec26292500160405180910390a2909b909a5098505050505050505050565b6000611cc183600a612167565b611ccc83600a612167565b611cd69086612176565b611ce09190612195565b949350505050565b6000611cfc82670ddd2935029d8000611d02565b92915050565b6000611d178383670de0b6b3a7640000611d1e565b9392505050565b828202811515841585830485141716611d3657600080fd5b0492915050565b6001600160a01b038116811461144f57600080fd5b600060208284031215611d6457600080fd5b8135611d1781611d3d565b602080825282518282018190526000919060409081850190868401855b82811015611dc457815180516001600160a01b0316855286810151878601528501518585015260609093019290850190600101611d8c565b5091979650505050505050565b801515811461144f57600080fd5b600080600060608486031215611df457600080fd5b8335611dff81611d3d565b92506020840135611e0f81611dd1565b91506040840135611e1f81611dd1565b809150509250925092565b600060208284031215611e3c57600080fd5b5035919050565b60008060008060808587031215611e5957600080fd5b8435611e6481611d3d565b93506020850135611e7481611d3d565b9250604085013591506060850135611e8b81611d3d565b939692955090935050565b600080600060608486031215611eab57600080fd5b8335611eb681611d3d565b9250602084013591506040840135611e1f81611d3d565b60008060408385031215611ee057600080fd5b8235611eeb81611d3d565b91506020830135611efb81611d3d565b809150509250929050565b600080600060608486031215611f1b57600080fd5b8335611f2681611d3d565b92506020840135611f3681611d3d565b929592945050506040919091013590565b600060208284031215611f5957600080fd5b8151611d1781611d3d565b634e487b7160e01b600052604160045260246000fd5b634e487b7160e01b600052603260045260246000fd5b634e487b7160e01b600052601160045260246000fd5b6000600019821415611fba57611fba611f90565b5060010190565b600060208284031215611fd357600080fd5b5051919050565b600060208284031215611fec57600080fd5b8151611d1781611dd1565b60008282101561200957612009611f90565b500390565b6000821982111561202157612021611f90565b500190565b634e487b7160e01b600052603160045260246000fd5b60006020828403121561204e57600080fd5b815160ff81168114611d1757600080fd5b6000806040838503121561207257600080fd5b505080516020909101519092909150565b600181815b808511156120be5781600019048211156120a4576120a4611f90565b808516156120b157918102915b93841c9390800290612088565b509250929050565b6000826120d557506001611cfc565b816120e257506000611cfc565b81600181146120f857600281146121025761211e565b6001915050611cfc565b60ff84111561211357612113611f90565b50506001821b611cfc565b5060208310610133831016604e8410600b8410161715612141575081810a611cfc565b61214b8383612083565b806000190482111561215f5761215f611f90565b029392505050565b6000611d1760ff8416836120c6565b600081600019048311821515161561219057612190611f90565b500290565b6000826121b257634e487b7160e01b600052601260045260246000fd5b50049056fea26469706673582212206dd800b88b5528cf8f3e55ceb42d3fffe36575ceb79a827f1f27e2b918dbdf5d64736f6c63430008090033",
    "linkReferences": {},
    "deployedLinkReferences": {}
}