{
    "_format": "hh-sol-artifact-1",
    "contractName": "UXDController",
    "sourceName": "contracts/core/UXDController.sol",
    "abi": [
        {
            "inputs": [
                {
                    "internalType": "address",
                    "name": "registryAddress",
                    "type": "address"
                }
            ],
            "stateMutability": "nonpayable",
            "type": "constructor"
        },
        {
            "inputs": [],
            "name": "ErrZeroAddress",
            "type": "error"
        },
        {
            "inputs": [
                {
                    "internalType": "address",
                    "name": "governor",
                    "type": "address"
                },
                {
                    "internalType": "address",
                    "name": "sender",
                    "type": "address"
                }
            ],
            "name": "NotGovernor",
            "type": "error"
        },
        {
            "anonymous": false,
            "inputs": [
                {
                    "indexed": true,
                    "internalType": "address",
                    "name": "account",
                    "type": "address"
                },
                {
                    "indexed": false,
                    "internalType": "uint256",
                    "name": "base",
                    "type": "uint256"
                },
                {
                    "indexed": false,
                    "internalType": "uint256",
                    "name": "quote",
                    "type": "uint256"
                },
                {
                    "indexed": false,
                    "internalType": "uint256",
                    "name": "minted",
                    "type": "uint256"
                }
            ],
            "name": "Minted",
            "type": "event"
        },
        {
            "anonymous": false,
            "inputs": [
                {
                    "indexed": true,
                    "internalType": "address",
                    "name": "previousOwner",
                    "type": "address"
                },
                {
                    "indexed": true,
                    "internalType": "address",
                    "name": "newOwner",
                    "type": "address"
                }
            ],
            "name": "OwnershipTransferred",
            "type": "event"
        },
        {
            "anonymous": false,
            "inputs": [
                {
                    "indexed": true,
                    "internalType": "address",
                    "name": "account",
                    "type": "address"
                },
                {
                    "indexed": false,
                    "internalType": "uint256",
                    "name": "base",
                    "type": "uint256"
                },
                {
                    "indexed": false,
                    "internalType": "uint256",
                    "name": "quote",
                    "type": "uint256"
                },
                {
                    "indexed": false,
                    "internalType": "uint256",
                    "name": "burned",
                    "type": "uint256"
                }
            ],
            "name": "Redeemed",
            "type": "event"
        },
        {
            "anonymous": false,
            "inputs": [
                {
                    "indexed": true,
                    "internalType": "address",
                    "name": "by",
                    "type": "address"
                },
                {
                    "indexed": true,
                    "internalType": "address",
                    "name": "newRouter",
                    "type": "address"
                }
            ],
            "name": "RouterUpdated",
            "type": "event"
        },
        {
            "anonymous": false,
            "inputs": [
                {
                    "indexed": true,
                    "internalType": "address",
                    "name": "by",
                    "type": "address"
                },
                {
                    "indexed": true,
                    "internalType": "address",
                    "name": "token",
                    "type": "address"
                },
                {
                    "indexed": false,
                    "internalType": "bool",
                    "name": "isWhitelisted",
                    "type": "bool"
                },
                {
                    "indexed": false,
                    "internalType": "bool",
                    "name": "isBaseToken",
                    "type": "bool"
                }
            ],
            "name": "WhitelistUpdated",
            "type": "event"
        },
        {
            "inputs": [
                {
                    "internalType": "address",
                    "name": "",
                    "type": "address"
                }
            ],
            "name": "collateralDeposited",
            "outputs": [
                {
                    "internalType": "uint256",
                    "name": "",
                    "type": "uint256"
                }
            ],
            "stateMutability": "view",
            "type": "function"
        },
        {
            "inputs": [
                {
                    "internalType": "uint256",
                    "name": "",
                    "type": "uint256"
                }
            ],
            "name": "collateralList",
            "outputs": [
                {
                    "internalType": "address",
                    "name": "",
                    "type": "address"
                }
            ],
            "stateMutability": "view",
            "type": "function"
        },
        {
            "inputs": [
                {
                    "internalType": "address",
                    "name": "",
                    "type": "address"
                }
            ],
            "name": "collateralTokens",
            "outputs": [
                {
                    "internalType": "bool",
                    "name": "",
                    "type": "bool"
                }
            ],
            "stateMutability": "view",
            "type": "function"
        },
        {
            "inputs": [
                {
                    "internalType": "address",
                    "name": "market",
                    "type": "address"
                },
                {
                    "internalType": "address",
                    "name": "collateralToken",
                    "type": "address"
                },
                {
                    "internalType": "uint256",
                    "name": "amount",
                    "type": "uint256"
                }
            ],
            "name": "depositInsurance",
            "outputs": [],
            "stateMutability": "nonpayable",
            "type": "function"
        },
        {
            "inputs": [],
            "name": "getCollateralInfo",
            "outputs": [
                {
                    "components": [
                        {
                            "internalType": "address",
                            "name": "token",
                            "type": "address"
                        },
                        {
                            "internalType": "uint256",
                            "name": "redeemable",
                            "type": "uint256"
                        },
                        {
                            "internalType": "uint256",
                            "name": "minted",
                            "type": "uint256"
                        }
                    ],
                    "internalType": "struct UXDController.CollateralInfo[]",
                    "name": "info",
                    "type": "tuple[]"
                }
            ],
            "stateMutability": "view",
            "type": "function"
        },
        {
            "inputs": [],
            "name": "governor",
            "outputs": [
                {
                    "internalType": "address",
                    "name": "",
                    "type": "address"
                }
            ],
            "stateMutability": "view",
            "type": "function"
        },
        {
            "inputs": [
                {
                    "internalType": "address",
                    "name": "market",
                    "type": "address"
                },
                {
                    "internalType": "address",
                    "name": "collateralToken",
                    "type": "address"
                },
                {
                    "internalType": "uint256",
                    "name": "amount",
                    "type": "uint256"
                },
                {
                    "internalType": "uint160",
                    "name": "sqrtPriceLimitX96",
                    "type": "uint160"
                }
            ],
            "name": "mint",
            "outputs": [],
            "stateMutability": "nonpayable",
            "type": "function"
        },
        {
            "inputs": [
                {
                    "internalType": "address",
                    "name": "",
                    "type": "address"
                }
            ],
            "name": "mintedPerCollateral",
            "outputs": [
                {
                    "internalType": "uint256",
                    "name": "",
                    "type": "uint256"
                }
            ],
            "stateMutability": "view",
            "type": "function"
        },
        {
            "inputs": [],
            "name": "owner",
            "outputs": [
                {
                    "internalType": "address",
                    "name": "",
                    "type": "address"
                }
            ],
            "stateMutability": "view",
            "type": "function"
        },
        {
            "inputs": [
                {
                    "internalType": "address",
                    "name": "market",
                    "type": "address"
                },
                {
                    "internalType": "address",
                    "name": "collateralToken",
                    "type": "address"
                },
                {
                    "internalType": "uint256",
                    "name": "amount",
                    "type": "uint256"
                },
                {
                    "internalType": "uint160",
                    "name": "sqrtPriceLimitX96",
                    "type": "uint160"
                }
            ],
            "name": "redeem",
            "outputs": [],
            "stateMutability": "nonpayable",
            "type": "function"
        },
        {
            "inputs": [
                {
                    "internalType": "address",
                    "name": "",
                    "type": "address"
                }
            ],
            "name": "redeemable",
            "outputs": [
                {
                    "internalType": "uint256",
                    "name": "",
                    "type": "uint256"
                }
            ],
            "stateMutability": "view",
            "type": "function"
        },
        {
            "inputs": [],
            "name": "registry",
            "outputs": [
                {
                    "internalType": "contract IContractRegistry",
                    "name": "",
                    "type": "address"
                }
            ],
            "stateMutability": "view",
            "type": "function"
        },
        {
            "inputs": [],
            "name": "renounceOwnership",
            "outputs": [],
            "stateMutability": "nonpayable",
            "type": "function"
        },
        {
            "inputs": [],
            "name": "router",
            "outputs": [
                {
                    "internalType": "contract IDEXRouter",
                    "name": "",
                    "type": "address"
                }
            ],
            "stateMutability": "view",
            "type": "function"
        },
        {
            "inputs": [
                {
                    "internalType": "address",
                    "name": "_router",
                    "type": "address"
                }
            ],
            "name": "setRouter",
            "outputs": [],
            "stateMutability": "nonpayable",
            "type": "function"
        },
        {
            "inputs": [
                {
                    "internalType": "address",
                    "name": "_token",
                    "type": "address"
                }
            ],
            "name": "setToken",
            "outputs": [],
            "stateMutability": "nonpayable",
            "type": "function"
        },
        {
            "inputs": [],
            "name": "token",
            "outputs": [
                {
                    "internalType": "contract UXDToken",
                    "name": "",
                    "type": "address"
                }
            ],
            "stateMutability": "view",
            "type": "function"
        },
        {
            "inputs": [
                {
                    "internalType": "address",
                    "name": "newOwner",
                    "type": "address"
                }
            ],
            "name": "transferOwnership",
            "outputs": [],
            "stateMutability": "nonpayable",
            "type": "function"
        },
        {
            "inputs": [
                {
                    "internalType": "address",
                    "name": "tokenAddress",
                    "type": "address"
                },
                {
                    "internalType": "bool",
                    "name": "isWhitelisted",
                    "type": "bool"
                },
                {
                    "internalType": "bool",
                    "name": "isBaseToken",
                    "type": "bool"
                }
            ],
            "name": "whitelistCollateral",
            "outputs": [],
            "stateMutability": "nonpayable",
            "type": "function"
        }
    ],
    "bytecode": "0x60806040523480156200001157600080fd5b5060405162003178380380620031788339818101604052810190620000379190620001df565b80620000586200004c620000a960201b60201c565b620000b160201b60201c565b80600160006101000a81548173ffffffffffffffffffffffffffffffffffffffff021916908373ffffffffffffffffffffffffffffffffffffffff1602179055505060016002819055505062000211565b600033905090565b60008060009054906101000a900473ffffffffffffffffffffffffffffffffffffffff169050816000806101000a81548173ffffffffffffffffffffffffffffffffffffffff021916908373ffffffffffffffffffffffffffffffffffffffff1602179055508173ffffffffffffffffffffffffffffffffffffffff168173ffffffffffffffffffffffffffffffffffffffff167f8be0079c531659141344cd1fd0a4f28419497f9722a3daafe3b4186f6b6457e060405160405180910390a35050565b600080fd5b600073ffffffffffffffffffffffffffffffffffffffff82169050919050565b6000620001a7826200017a565b9050919050565b620001b9816200019a565b8114620001c557600080fd5b50565b600081519050620001d981620001ae565b92915050565b600060208284031215620001f857620001f762000175565b5b60006200020884828501620001c8565b91505092915050565b612f5780620002216000396000f3fe608060405234801561001057600080fd5b50600436106101215760003560e01c8063715018a6116100ad578063cffbc29711610071578063cffbc297146102f4578063d765521a14610324578063f2fde38b14610340578063f887ea401461035c578063fc0c546a1461037a57610121565b8063715018a6146102765780637b103999146102805780637f53376a1461029e5780638da5cb5b146102ba578063c0d78655146102d857610121565b80632e13168b116100f45780632e13168b146101ae5780633024a912146101ca57806335678728146101fa57806337ffc32414610216578063484267a41461024657610121565b80630a4b9ec2146101265780630c340a2414610156578063144fa6d7146101745780632e0bcb4314610190575b600080fd5b610140600480360381019061013b91906120b4565b610398565b60405161014d91906120fa565b60405180910390f35b61015e6103b0565b60405161016b9190612124565b60405180910390f35b61018e600480360381019061018991906120b4565b610457565b005b610198610582565b6040516101a5919061224e565b60405180910390f35b6101c860048036038101906101c391906122a8565b610717565b005b6101e460048036038101906101df9190612327565b6108cf565b6040516101f19190612124565b60405180910390f35b610214600480360381019061020f9190612380565b61090e565b005b610230600480360381019061022b91906120b4565b610fc5565b60405161023d91906120fa565b60405180910390f35b610260600480360381019061025b91906120b4565b610fdd565b60405161026d91906120fa565b60405180910390f35b61027e610ff5565b005b61028861107d565b6040516102959190612446565b60405180910390f35b6102b860048036038101906102b39190612380565b6110a3565b005b6102c2611569565b6040516102cf9190612124565b60405180910390f35b6102f260048036038101906102ed91906120b4565b611592565b005b61030e600480360381019061030991906120b4565b6116bd565b60405161031b9190612470565b60405180910390f35b61033e6004803603810190610339919061248b565b6116dd565b005b61035a600480360381019061035591906120b4565b611aee565b005b610364611be6565b60405161037191906124ff565b60405180910390f35b610382611c0c565b60405161038f919061253b565b60405180910390f35b60086020528060005260406000206000915090505481565b6000600160009054906101000a900473ffffffffffffffffffffffffffffffffffffffff1673ffffffffffffffffffffffffffffffffffffffff16630c340a246040518163ffffffff1660e01b815260040160206040518083038186803b15801561041a57600080fd5b505afa15801561042e573d6000803e3d6000fd5b505050506040513d601f19601f82011682018060405250810190610452919061256b565b905090565b61045f6103b0565b73ffffffffffffffffffffffffffffffffffffffff163373ffffffffffffffffffffffffffffffffffffffff16146104d7576104996103b0565b336040517fb38400080000000000000000000000000000000000000000000000000000000081526004016104ce929190612598565b60405180910390fd5b600073ffffffffffffffffffffffffffffffffffffffff168173ffffffffffffffffffffffffffffffffffffffff16141561053e576040517fecc6fdf000000000000000000000000000000000000000000000000000000000815260040160405180910390fd5b80600360006101000a81548173ffffffffffffffffffffffffffffffffffffffff021916908373ffffffffffffffffffffffffffffffffffffffff16021790555050565b606060068054905067ffffffffffffffff8111156105a3576105a26125c1565b5b6040519080825280602002602001820160405280156105dc57816020015b6105c961201a565b8152602001906001900390816105c15790505b50905060005b60068054905081101561071357600060068281548110610605576106046125f0565b5b9060005260206000200160009054906101000a900473ffffffffffffffffffffffffffffffffffffffff16905060405180606001604052808273ffffffffffffffffffffffffffffffffffffffff168152602001600a60008473ffffffffffffffffffffffffffffffffffffffff1673ffffffffffffffffffffffffffffffffffffffff168152602001908152602001600020548152602001600960008473ffffffffffffffffffffffffffffffffffffffff1673ffffffffffffffffffffffffffffffffffffffff168152602001908152602001600020548152508383815181106106f4576106f36125f0565b5b602002602001018190525050808061070b9061264e565b9150506105e2565b5090565b61071f6103b0565b73ffffffffffffffffffffffffffffffffffffffff163373ffffffffffffffffffffffffffffffffffffffff1614610797576107596103b0565b336040517fb384000800000000000000000000000000000000000000000000000000000000815260040161078e929190612598565b60405180910390fd5b81600560008573ffffffffffffffffffffffffffffffffffffffff1673ffffffffffffffffffffffffffffffffffffffff16815260200190815260200160002060006101000a81548160ff02191690831515021790555080600760008573ffffffffffffffffffffffffffffffffffffffff1673ffffffffffffffffffffffffffffffffffffffff16815260200190815260200160002060006101000a81548160ff02191690831515021790555081156108595761085483611c32565b610863565b61086283611d35565b5b8273ffffffffffffffffffffffffffffffffffffffff163373ffffffffffffffffffffffffffffffffffffffff167fa1722c493396a9db8ab972a884fcc6028f1eb1a84c51a04316bb4293a263cb5284846040516108c2929190612697565b60405180910390a3505050565b600681815481106108df57600080fd5b906000526020600020016000915054906101000a900473ffffffffffffffffffffffffffffffffffffffff1681565b600560008473ffffffffffffffffffffffffffffffffffffffff1673ffffffffffffffffffffffffffffffffffffffff16815260200190815260200160002060009054906101000a900460ff1661099a576040517f08c379a00000000000000000000000000000000000000000000000000000000081526004016109919061271d565b60405180910390fd5b60008390506000339050838273ffffffffffffffffffffffffffffffffffffffff1663dd62ed3e83306040518363ffffffff1660e01b81526004016109e0929190612598565b60206040518083038186803b1580156109f857600080fd5b505afa158015610a0c573d6000803e3d6000fd5b505050506040513d601f19601f82011682018060405250810190610a309190612752565b1015610a71576040517f08c379a0000000000000000000000000000000000000000000000000000000008152600401610a68906127cb565b60405180910390fd5b6000600460009054906101000a900473ffffffffffffffffffffffffffffffffffffffff1673ffffffffffffffffffffffffffffffffffffffff16632c147b75886040518263ffffffff1660e01b8152600401610ace9190612124565b60206040518083038186803b158015610ae657600080fd5b505afa158015610afa573d6000803e3d6000fd5b505050506040513d601f19601f82011682018060405250810190610b1e9190612829565b90508273ffffffffffffffffffffffffffffffffffffffff166323b872dd8383886040518463ffffffff1660e01b8152600401610b5d93929190612856565b602060405180830381600087803b158015610b7757600080fd5b505af1158015610b8b573d6000803e3d6000fd5b505050506040513d601f19601f82011682018060405250810190610baf91906128a2565b506000610c4d610c488573ffffffffffffffffffffffffffffffffffffffff1663313ce5676040518163ffffffff1660e01b815260040160206040518083038186803b158015610bfe57600080fd5b505afa158015610c12573d6000803e3d6000fd5b505050506040513d601f19601f82011682018060405250810190610c369190612908565b601289611f0a9092919063ffffffff16565b611f44565b905060008690506000600760008a73ffffffffffffffffffffffffffffffffffffffff1673ffffffffffffffffffffffffffffffffffffffff16815260200190815260200160002060009054906101000a900460ff16905060006040518060c001604052808c73ffffffffffffffffffffffffffffffffffffffff16815260200185815260200183151581526020018b73ffffffffffffffffffffffffffffffffffffffff1681526020018481526020018973ffffffffffffffffffffffffffffffffffffffff168152509050600080600460009054906101000a900473ffffffffffffffffffffffffffffffffffffffff1673ffffffffffffffffffffffffffffffffffffffff1663b46e57f7846040518263ffffffff1660e01b8152600401610d7891906129ce565b6040805180830381600087803b158015610d9157600080fd5b505af1158015610da5573d6000803e3d6000fd5b505050506040513d601f19601f82011682018060405250810190610dc991906129e9565b9150915060008190508b600860008f73ffffffffffffffffffffffffffffffffffffffff1673ffffffffffffffffffffffffffffffffffffffff1681526020019081526020016000206000828254610e219190612a29565b925050819055508b600a60008f73ffffffffffffffffffffffffffffffffffffffff1673ffffffffffffffffffffffffffffffffffffffff1681526020019081526020016000206000828254610e779190612a29565b9250508190555080600960008f73ffffffffffffffffffffffffffffffffffffffff1673ffffffffffffffffffffffffffffffffffffffff1681526020019081526020016000206000828254610ecd9190612a29565b92505081905550600360009054906101000a900473ffffffffffffffffffffffffffffffffffffffff1673ffffffffffffffffffffffffffffffffffffffff166340c10f198a836040518363ffffffff1660e01b8152600401610f31929190612a7f565b600060405180830381600087803b158015610f4b57600080fd5b505af1158015610f5f573d6000803e3d6000fd5b505050508873ffffffffffffffffffffffffffffffffffffffff167f5a3358a3d27a5373c0df2604662088d37894d56b7cfd27f315770440f4e0d919848484604051610fad93929190612aa8565b60405180910390a25050505050505050505050505050565b60096020528060005260406000206000915090505481565b600a6020528060005260406000206000915090505481565b610ffd611f4e565b73ffffffffffffffffffffffffffffffffffffffff1661101b611569565b73ffffffffffffffffffffffffffffffffffffffff1614611071576040517f08c379a000000000000000000000000000000000000000000000000000000000815260040161106890612b2b565b60405180910390fd5b61107b6000611f56565b565b600160009054906101000a900473ffffffffffffffffffffffffffffffffffffffff1681565b600560008473ffffffffffffffffffffffffffffffffffffffff1673ffffffffffffffffffffffffffffffffffffffff16815260200190815260200160002060009054906101000a900460ff1661112f576040517f08c379a00000000000000000000000000000000000000000000000000000000081526004016111269061271d565b60405180910390fd5b6000839050600033905060006111d66111d18473ffffffffffffffffffffffffffffffffffffffff1663313ce5676040518163ffffffff1660e01b815260040160206040518083038186803b15801561118757600080fd5b505afa15801561119b573d6000803e3d6000fd5b505050506040513d601f19601f820116820180604052508101906111bf9190612908565b601288611f0a9092919063ffffffff16565b611f44565b905060008190506000600760008973ffffffffffffffffffffffffffffffffffffffff1673ffffffffffffffffffffffffffffffffffffffff16815260200190815260200160002060009054906101000a900460ff16905060006040518060e001604052808b73ffffffffffffffffffffffffffffffffffffffff16815260200185815260200183151581526020018a73ffffffffffffffffffffffffffffffffffffffff1681526020018481526020018873ffffffffffffffffffffffffffffffffffffffff1681526020018673ffffffffffffffffffffffffffffffffffffffff168152509050600080600460009054906101000a900473ffffffffffffffffffffffffffffffffffffffff1673ffffffffffffffffffffffffffffffffffffffff16633e0202df846040518263ffffffff1660e01b815260040161131d9190612bd9565b6040805180830381600087803b15801561133657600080fd5b505af115801561134a573d6000803e3d6000fd5b505050506040513d601f19601f8201168201806040525081019061136e91906129e9565b9150915060008190508a600860008e73ffffffffffffffffffffffffffffffffffffffff1673ffffffffffffffffffffffffffffffffffffffff16815260200190815260200160002060008282546113c69190612bf4565b925050819055508a600a60008e73ffffffffffffffffffffffffffffffffffffffff1673ffffffffffffffffffffffffffffffffffffffff168152602001908152602001600020600082825461141c9190612bf4565b9250508190555080600960008e73ffffffffffffffffffffffffffffffffffffffff1673ffffffffffffffffffffffffffffffffffffffff16815260200190815260200160002060008282546114729190612bf4565b92505081905550600360009054906101000a900473ffffffffffffffffffffffffffffffffffffffff1673ffffffffffffffffffffffffffffffffffffffff16639dc29fac89836040518363ffffffff1660e01b81526004016114d6929190612a7f565b600060405180830381600087803b1580156114f057600080fd5b505af1158015611504573d6000803e3d6000fd5b505050508773ffffffffffffffffffffffffffffffffffffffff167f484c40561359f3e3b8be9101897f8680aa82fbe1df9fd9038e0dbc628403264684848460405161155293929190612aa8565b60405180910390a250505050505050505050505050565b60008060009054906101000a900473ffffffffffffffffffffffffffffffffffffffff16905090565b61159a6103b0565b73ffffffffffffffffffffffffffffffffffffffff163373ffffffffffffffffffffffffffffffffffffffff1614611612576115d46103b0565b336040517fb3840008000000000000000000000000000000000000000000000000000000008152600401611609929190612598565b60405180910390fd5b600073ffffffffffffffffffffffffffffffffffffffff168173ffffffffffffffffffffffffffffffffffffffff161415611679576040517fecc6fdf000000000000000000000000000000000000000000000000000000000815260040160405180910390fd5b80600460006101000a81548173ffffffffffffffffffffffffffffffffffffffff021916908373ffffffffffffffffffffffffffffffffffffffff16021790555050565b60056020528060005260406000206000915054906101000a900460ff1681565b6116e56103b0565b73ffffffffffffffffffffffffffffffffffffffff163373ffffffffffffffffffffffffffffffffffffffff161461175d5761171f6103b0565b336040517fb3840008000000000000000000000000000000000000000000000000000000008152600401611754929190612598565b60405180910390fd5b600560008373ffffffffffffffffffffffffffffffffffffffff1673ffffffffffffffffffffffffffffffffffffffff16815260200190815260200160002060009054906101000a900460ff166117e9576040517f08c379a00000000000000000000000000000000000000000000000000000000081526004016117e09061271d565b60405180910390fd5b60008290506000339050828273ffffffffffffffffffffffffffffffffffffffff1663dd62ed3e83306040518363ffffffff1660e01b815260040161182f929190612598565b60206040518083038186803b15801561184757600080fd5b505afa15801561185b573d6000803e3d6000fd5b505050506040513d601f19601f8201168201806040525081019061187f9190612752565b10156118c0576040517f08c379a00000000000000000000000000000000000000000000000000000000081526004016118b7906127cb565b60405180910390fd5b6000600460009054906101000a900473ffffffffffffffffffffffffffffffffffffffff1673ffffffffffffffffffffffffffffffffffffffff16632c147b75876040518263ffffffff1660e01b815260040161191d9190612124565b60206040518083038186803b15801561193557600080fd5b505afa158015611949573d6000803e3d6000fd5b505050506040513d601f19601f8201168201806040525081019061196d9190612829565b905083600860008773ffffffffffffffffffffffffffffffffffffffff1673ffffffffffffffffffffffffffffffffffffffff16815260200190815260200160002060008282546119be9190612a29565b925050819055508273ffffffffffffffffffffffffffffffffffffffff166323b872dd8383876040518463ffffffff1660e01b8152600401611a0293929190612856565b602060405180830381600087803b158015611a1c57600080fd5b505af1158015611a30573d6000803e3d6000fd5b505050506040513d601f19601f82011682018060405250810190611a5491906128a2565b50600460009054906101000a900473ffffffffffffffffffffffffffffffffffffffff1673ffffffffffffffffffffffffffffffffffffffff1663449ee1428787876040518463ffffffff1660e01b8152600401611ab493929190612856565b600060405180830381600087803b158015611ace57600080fd5b505af1158015611ae2573d6000803e3d6000fd5b50505050505050505050565b611af6611f4e565b73ffffffffffffffffffffffffffffffffffffffff16611b14611569565b73ffffffffffffffffffffffffffffffffffffffff1614611b6a576040517f08c379a0000000000000000000000000000000000000000000000000000000008152600401611b6190612b2b565b60405180910390fd5b600073ffffffffffffffffffffffffffffffffffffffff168173ffffffffffffffffffffffffffffffffffffffff161415611bda576040517f08c379a0000000000000000000000000000000000000000000000000000000008152600401611bd190612c9a565b60405180910390fd5b611be381611f56565b50565b600460009054906101000a900473ffffffffffffffffffffffffffffffffffffffff1681565b600360009054906101000a900473ffffffffffffffffffffffffffffffffffffffff1681565b60005b600680549050811015611ccd5760068181548110611c5657611c556125f0565b5b9060005260206000200160009054906101000a900473ffffffffffffffffffffffffffffffffffffffff1673ffffffffffffffffffffffffffffffffffffffff168273ffffffffffffffffffffffffffffffffffffffff161415611cba5750611d32565b8080611cc59061264e565b915050611c35565b506006819080600181540180825580915050600190039060005260206000200160009091909190916101000a81548173ffffffffffffffffffffffffffffffffffffffff021916908373ffffffffffffffffffffffffffffffffffffffff1602179055505b50565b60007fffffffffffffffffffffffffffffffffffffffffffffffffffffffffffffffff905060005b600680549050811015611df75760068181548110611d7e57611d7d6125f0565b5b9060005260206000200160009054906101000a900473ffffffffffffffffffffffffffffffffffffffff1673ffffffffffffffffffffffffffffffffffffffff168373ffffffffffffffffffffffffffffffffffffffff161415611de457809150611df7565b8080611def9061264e565b915050611d5d565b507fffffffffffffffffffffffffffffffffffffffffffffffffffffffffffffffff8114611f06576006808054905081548110611e3757611e366125f0565b5b9060005260206000200160009054906101000a900473ffffffffffffffffffffffffffffffffffffffff1660068281548110611e7657611e756125f0565b5b9060005260206000200160006101000a81548173ffffffffffffffffffffffffffffffffffffffff021916908373ffffffffffffffffffffffffffffffffffffffff1602179055506006805480611ed057611ecf612cba565b5b6001900381819060005260206000200160006101000a81549073ffffffffffffffffffffffffffffffffffffffff021916905590555b5050565b600082600a611f199190612e1c565b82600a611f269190612e1c565b85611f319190612e67565b611f3b9190612ef0565b90509392505050565b6000819050919050565b600033905090565b60008060009054906101000a900473ffffffffffffffffffffffffffffffffffffffff169050816000806101000a81548173ffffffffffffffffffffffffffffffffffffffff021916908373ffffffffffffffffffffffffffffffffffffffff1602179055508173ffffffffffffffffffffffffffffffffffffffff168173ffffffffffffffffffffffffffffffffffffffff167f8be0079c531659141344cd1fd0a4f28419497f9722a3daafe3b4186f6b6457e060405160405180910390a35050565b6040518060600160405280600073ffffffffffffffffffffffffffffffffffffffff16815260200160008152602001600081525090565b600080fd5b600073ffffffffffffffffffffffffffffffffffffffff82169050919050565b600061208182612056565b9050919050565b61209181612076565b811461209c57600080fd5b50565b6000813590506120ae81612088565b92915050565b6000602082840312156120ca576120c9612051565b5b60006120d88482850161209f565b91505092915050565b6000819050919050565b6120f4816120e1565b82525050565b600060208201905061210f60008301846120eb565b92915050565b61211e81612076565b82525050565b60006020820190506121396000830184612115565b92915050565b600081519050919050565b600082825260208201905092915050565b6000819050602082019050919050565b61217481612076565b82525050565b612183816120e1565b82525050565b60608201600082015161219f600085018261216b565b5060208201516121b2602085018261217a565b5060408201516121c5604085018261217a565b50505050565b60006121d78383612189565b60608301905092915050565b6000602082019050919050565b60006121fb8261213f565b612205818561214a565b93506122108361215b565b8060005b8381101561224157815161222888826121cb565b9750612233836121e3565b925050600181019050612214565b5085935050505092915050565b6000602082019050818103600083015261226881846121f0565b905092915050565b60008115159050919050565b61228581612270565b811461229057600080fd5b50565b6000813590506122a28161227c565b92915050565b6000806000606084860312156122c1576122c0612051565b5b60006122cf8682870161209f565b93505060206122e086828701612293565b92505060406122f186828701612293565b9150509250925092565b612304816120e1565b811461230f57600080fd5b50565b600081359050612321816122fb565b92915050565b60006020828403121561233d5761233c612051565b5b600061234b84828501612312565b91505092915050565b61235d81612056565b811461236857600080fd5b50565b60008135905061237a81612354565b92915050565b6000806000806080858703121561239a57612399612051565b5b60006123a88782880161209f565b94505060206123b98782880161209f565b93505060406123ca87828801612312565b92505060606123db8782880161236b565b91505092959194509250565b6000819050919050565b600061240c61240761240284612056565b6123e7565b612056565b9050919050565b600061241e826123f1565b9050919050565b600061243082612413565b9050919050565b61244081612425565b82525050565b600060208201905061245b6000830184612437565b92915050565b61246a81612270565b82525050565b60006020820190506124856000830184612461565b92915050565b6000806000606084860312156124a4576124a3612051565b5b60006124b28682870161209f565b93505060206124c38682870161209f565b92505060406124d486828701612312565b9150509250925092565b60006124e982612413565b9050919050565b6124f9816124de565b82525050565b600060208201905061251460008301846124f0565b92915050565b600061252582612413565b9050919050565b6125358161251a565b82525050565b6000602082019050612550600083018461252c565b92915050565b60008151905061256581612088565b92915050565b60006020828403121561258157612580612051565b5b600061258f84828501612556565b91505092915050565b60006040820190506125ad6000830185612115565b6125ba6020830184612115565b9392505050565b7f4e487b7100000000000000000000000000000000000000000000000000000000600052604160045260246000fd5b7f4e487b7100000000000000000000000000000000000000000000000000000000600052603260045260246000fd5b7f4e487b7100000000000000000000000000000000000000000000000000000000600052601160045260246000fd5b6000612659826120e1565b91507fffffffffffffffffffffffffffffffffffffffffffffffffffffffffffffffff82141561268c5761268b61261f565b5b600182019050919050565b60006040820190506126ac6000830185612461565b6126b96020830184612461565b9392505050565b600082825260208201905092915050565b7f43543a202157686974656c697374656400000000000000000000000000000000600082015250565b60006127076010836126c0565b9150612712826126d1565b602082019050919050565b60006020820190508181036000830152612736816126fa565b9050919050565b60008151905061274c816122fb565b92915050565b60006020828403121561276857612767612051565b5b60006127768482850161273d565b91505092915050565b7f43543a2021417070726f76656400000000000000000000000000000000000000600082015250565b60006127b5600d836126c0565b91506127c08261277f565b602082019050919050565b600060208201905081810360008301526127e4816127a8565b9050919050565b60006127f682612076565b9050919050565b612806816127eb565b811461281157600080fd5b50565b600081519050612823816127fd565b92915050565b60006020828403121561283f5761283e612051565b5b600061284d84828501612814565b91505092915050565b600060608201905061286b6000830186612115565b6128786020830185612115565b61288560408301846120eb565b949350505050565b60008151905061289c8161227c565b92915050565b6000602082840312156128b8576128b7612051565b5b60006128c68482850161288d565b91505092915050565b600060ff82169050919050565b6128e5816128cf565b81146128f057600080fd5b50565b600081519050612902816128dc565b92915050565b60006020828403121561291e5761291d612051565b5b600061292c848285016128f3565b91505092915050565b61293e81612270565b82525050565b61294d81612056565b82525050565b60c082016000820151612969600085018261216b565b50602082015161297c602085018261217a565b50604082015161298f6040850182612935565b5060608201516129a2606085018261216b565b5060808201516129b5608085018261217a565b5060a08201516129c860a0850182612944565b50505050565b600060c0820190506129e36000830184612953565b92915050565b60008060408385031215612a00576129ff612051565b5b6000612a0e8582860161273d565b9250506020612a1f8582860161273d565b9150509250929050565b6000612a34826120e1565b9150612a3f836120e1565b9250827fffffffffffffffffffffffffffffffffffffffffffffffffffffffffffffffff03821115612a7457612a7361261f565b5b828201905092915050565b6000604082019050612a946000830185612115565b612aa160208301846120eb565b9392505050565b6000606082019050612abd60008301866120eb565b612aca60208301856120eb565b612ad760408301846120eb565b949350505050565b7f4f776e61626c653a2063616c6c6572206973206e6f7420746865206f776e6572600082015250565b6000612b156020836126c0565b9150612b2082612adf565b602082019050919050565b60006020820190508181036000830152612b4481612b08565b9050919050565b60e082016000820151612b61600085018261216b565b506020820151612b74602085018261217a565b506040820151612b876040850182612935565b506060820151612b9a606085018261216b565b506080820151612bad608085018261217a565b5060a0820151612bc060a0850182612944565b5060c0820151612bd360c085018261216b565b50505050565b600060e082019050612bee6000830184612b4b565b92915050565b6000612bff826120e1565b9150612c0a836120e1565b925082821015612c1d57612c1c61261f565b5b828203905092915050565b7f4f776e61626c653a206e6577206f776e657220697320746865207a65726f206160008201527f6464726573730000000000000000000000000000000000000000000000000000602082015250565b6000612c846026836126c0565b9150612c8f82612c28565b604082019050919050565b60006020820190508181036000830152612cb381612c77565b9050919050565b7f4e487b7100000000000000000000000000000000000000000000000000000000600052603160045260246000fd5b60008160011c9050919050565b6000808291508390505b6001851115612d4057808604811115612d1c57612d1b61261f565b5b6001851615612d2b5780820291505b8081029050612d3985612ce9565b9450612d00565b94509492505050565b600082612d595760019050612e15565b81612d675760009050612e15565b8160018114612d7d5760028114612d8757612db6565b6001915050612e15565b60ff841115612d9957612d9861261f565b5b8360020a915084821115612db057612daf61261f565b5b50612e15565b5060208310610133831016604e8410600b8410161715612deb5782820a905083811115612de657612de561261f565b5b612e15565b612df88484846001612cf6565b92509050818404811115612e0f57612e0e61261f565b5b81810290505b9392505050565b6000612e27826120e1565b9150612e32836128cf565b9250612e5f7fffffffffffffffffffffffffffffffffffffffffffffffffffffffffffffffff8484612d49565b905092915050565b6000612e72826120e1565b9150612e7d836120e1565b9250817fffffffffffffffffffffffffffffffffffffffffffffffffffffffffffffffff0483118215151615612eb657612eb561261f565b5b828202905092915050565b7f4e487b7100000000000000000000000000000000000000000000000000000000600052601260045260246000fd5b6000612efb826120e1565b9150612f06836120e1565b925082612f1657612f15612ec1565b5b82820490509291505056fea26469706673582212202793662f8f6ee9365344fbe518ee3b73131a7d69aaa9b3196588948a018ce5b864736f6c63430008090033",
    "linkReferences": {},
    "deployedLinkReferences": {}
}